{
  "_format": "hh-sol-artifact-1",
  "contractName": "FarmToken",
  "sourceName": "contracts/FarmToken.sol",
  "abi": [
    {
      "inputs": [
        {
          "internalType": "string",
          "name": "name",
          "type": "string"
        },
        {
          "internalType": "string",
          "name": "symbol",
          "type": "string"
        },
        {
          "internalType": "uint256",
          "name": "_totalSupply",
          "type": "uint256"
        },
        {
          "internalType": "uint256",
          "name": "_farmId",
          "type": "uint256"
        },
        {
          "internalType": "address",
          "name": "_farmFactory",
          "type": "address"
        },
        {
          "internalType": "uint256",
          "name": "_pricePerToken",
          "type": "uint256"
        }
      ],
      "stateMutability": "nonpayable",
      "type": "constructor"
    },
    {
      "inputs": [
        {
          "internalType": "address",
          "name": "spender",
          "type": "address"
        },
        {
          "internalType": "uint256",
          "name": "allowance",
          "type": "uint256"
        },
        {
          "internalType": "uint256",
          "name": "needed",
          "type": "uint256"
        }
      ],
      "name": "ERC20InsufficientAllowance",
      "type": "error"
    },
    {
      "inputs": [
        {
          "internalType": "address",
          "name": "sender",
          "type": "address"
        },
        {
          "internalType": "uint256",
          "name": "balance",
          "type": "uint256"
        },
        {
          "internalType": "uint256",
          "name": "needed",
          "type": "uint256"
        }
      ],
      "name": "ERC20InsufficientBalance",
      "type": "error"
    },
    {
      "inputs": [
        {
          "internalType": "address",
          "name": "approver",
          "type": "address"
        }
      ],
      "name": "ERC20InvalidApprover",
      "type": "error"
    },
    {
      "inputs": [
        {
          "internalType": "address",
          "name": "receiver",
          "type": "address"
        }
      ],
      "name": "ERC20InvalidReceiver",
      "type": "error"
    },
    {
      "inputs": [
        {
          "internalType": "address",
          "name": "sender",
          "type": "address"
        }
      ],
      "name": "ERC20InvalidSender",
      "type": "error"
    },
    {
      "inputs": [
        {
          "internalType": "address",
          "name": "spender",
          "type": "address"
        }
      ],
      "name": "ERC20InvalidSpender",
      "type": "error"
    },
    {
      "inputs": [
        {
          "internalType": "address",
          "name": "owner",
          "type": "address"
        }
      ],
      "name": "OwnableInvalidOwner",
      "type": "error"
    },
    {
      "inputs": [
        {
          "internalType": "address",
          "name": "account",
          "type": "address"
        }
      ],
      "name": "OwnableUnauthorizedAccount",
      "type": "error"
    },
    {
      "anonymous": false,
      "inputs": [
        {
          "indexed": true,
          "internalType": "address",
          "name": "owner",
          "type": "address"
        },
        {
          "indexed": true,
          "internalType": "address",
          "name": "spender",
          "type": "address"
        },
        {
          "indexed": false,
          "internalType": "uint256",
          "name": "value",
          "type": "uint256"
        }
      ],
      "name": "Approval",
      "type": "event"
    },
    {
      "anonymous": false,
      "inputs": [
        {
          "indexed": true,
          "internalType": "address",
          "name": "owner",
          "type": "address"
        },
        {
          "indexed": false,
          "internalType": "uint256",
          "name": "amount",
          "type": "uint256"
        }
      ],
      "name": "FundsWithdrawn",
      "type": "event"
    },
    {
      "anonymous": false,
      "inputs": [
        {
          "indexed": true,
          "internalType": "address",
          "name": "previousOwner",
          "type": "address"
        },
        {
          "indexed": true,
          "internalType": "address",
          "name": "newOwner",
          "type": "address"
        }
      ],
      "name": "OwnershipTransferred",
      "type": "event"
    },
    {
      "anonymous": false,
      "inputs": [
        {
          "indexed": false,
          "internalType": "uint256",
          "name": "oldPrice",
          "type": "uint256"
        },
        {
          "indexed": false,
          "internalType": "uint256",
          "name": "newPrice",
          "type": "uint256"
        }
      ],
      "name": "PriceUpdated",
      "type": "event"
    },
    {
      "anonymous": false,
      "inputs": [
        {
          "indexed": true,
          "internalType": "address",
          "name": "buyer",
          "type": "address"
        },
        {
          "indexed": false,
          "internalType": "uint256",
          "name": "amount",
          "type": "uint256"
        },
        {
          "indexed": false,
          "internalType": "uint256",
          "name": "costInWei",
          "type": "uint256"
        },
        {
          "indexed": false,
          "internalType": "uint256",
          "name": "costInUsd",
          "type": "uint256"
        }
      ],
      "name": "TokensPurchased",
      "type": "event"
    },
    {
      "anonymous": false,
      "inputs": [
        {
          "indexed": true,
          "internalType": "address",
          "name": "buyer",
          "type": "address"
        },
        {
          "indexed": false,
          "internalType": "uint256",
          "name": "amount",
          "type": "uint256"
        },
        {
          "indexed": false,
          "internalType": "uint256",
          "name": "usdcAmount",
          "type": "uint256"
        }
      ],
      "name": "TokensPurchasedWithUSDC",
      "type": "event"
    },
    {
      "anonymous": false,
      "inputs": [
        {
          "indexed": true,
          "internalType": "address",
          "name": "seller",
          "type": "address"
        },
        {
          "indexed": false,
          "internalType": "uint256",
          "name": "amount",
          "type": "uint256"
        },
        {
          "indexed": false,
          "internalType": "uint256",
          "name": "costInWei",
          "type": "uint256"
        },
        {
          "indexed": false,
          "internalType": "uint256",
          "name": "costInUsd",
          "type": "uint256"
        }
      ],
      "name": "TokensSold",
      "type": "event"
    },
    {
      "anonymous": false,
      "inputs": [
        {
          "indexed": true,
          "internalType": "address",
          "name": "from",
          "type": "address"
        },
        {
          "indexed": true,
          "internalType": "address",
          "name": "to",
          "type": "address"
        },
        {
          "indexed": false,
          "internalType": "uint256",
          "name": "value",
          "type": "uint256"
        }
      ],
      "name": "Transfer",
      "type": "event"
    },
    {
      "inputs": [],
      "name": "ETH_USD_PRICE_FEED",
      "outputs": [
        {
          "internalType": "address",
          "name": "",
          "type": "address"
        }
      ],
      "stateMutability": "view",
      "type": "function"
    },
    {
      "inputs": [],
      "name": "PRICE_SAFETY_MARGIN",
      "outputs": [
        {
          "internalType": "uint256",
          "name": "",
          "type": "uint256"
        }
      ],
      "stateMutability": "view",
      "type": "function"
    },
    {
      "inputs": [],
      "name": "PRICE_VALIDITY_DURATION",
      "outputs": [
        {
          "internalType": "uint256",
          "name": "",
          "type": "uint256"
        }
      ],
      "stateMutability": "view",
      "type": "function"
    },
    {
      "inputs": [],
      "name": "USDC_ADDRESS",
      "outputs": [
        {
          "internalType": "address",
          "name": "",
          "type": "address"
        }
      ],
      "stateMutability": "view",
      "type": "function"
    },
    {
      "inputs": [
        {
          "internalType": "address",
          "name": "owner",
          "type": "address"
        },
        {
          "internalType": "address",
          "name": "spender",
          "type": "address"
        }
      ],
      "name": "allowance",
      "outputs": [
        {
          "internalType": "uint256",
          "name": "",
          "type": "uint256"
        }
      ],
      "stateMutability": "view",
      "type": "function"
    },
    {
      "inputs": [
        {
          "internalType": "address",
          "name": "spender",
          "type": "address"
        },
        {
          "internalType": "uint256",
          "name": "value",
          "type": "uint256"
        }
      ],
      "name": "approve",
      "outputs": [
        {
          "internalType": "bool",
          "name": "",
          "type": "bool"
        }
      ],
      "stateMutability": "nonpayable",
      "type": "function"
    },
    {
      "inputs": [
        {
          "internalType": "address",
          "name": "account",
          "type": "address"
        }
      ],
      "name": "balanceOf",
      "outputs": [
        {
          "internalType": "uint256",
          "name": "",
          "type": "uint256"
        }
      ],
      "stateMutability": "view",
      "type": "function"
    },
    {
      "inputs": [
        {
          "internalType": "uint256",
          "name": "amount",
          "type": "uint256"
        }
      ],
      "name": "buyTokens",
      "outputs": [],
      "stateMutability": "payable",
      "type": "function"
    },
    {
      "inputs": [
        {
          "internalType": "uint256",
          "name": "amount",
          "type": "uint256"
        }
      ],
      "name": "buyTokensWithUSDC",
      "outputs": [],
      "stateMutability": "nonpayable",
      "type": "function"
    },
    {
      "inputs": [
        {
          "internalType": "uint256",
          "name": "usdCents",
          "type": "uint256"
        }
      ],
      "name": "calculateETHAmount",
      "outputs": [
        {
          "internalType": "uint256",
          "name": "",
          "type": "uint256"
        }
      ],
      "stateMutability": "view",
      "type": "function"
    },
    {
      "inputs": [],
      "name": "decimals",
      "outputs": [
        {
          "internalType": "uint8",
          "name": "",
          "type": "uint8"
        }
      ],
      "stateMutability": "view",
      "type": "function"
    },
    {
      "inputs": [],
      "name": "farmFactory",
      "outputs": [
        {
          "internalType": "address",
          "name": "",
          "type": "address"
        }
      ],
      "stateMutability": "view",
      "type": "function"
    },
    {
      "inputs": [],
      "name": "farmId",
      "outputs": [
        {
          "internalType": "uint256",
          "name": "",
          "type": "uint256"
        }
      ],
      "stateMutability": "view",
      "type": "function"
    },
    {
      "inputs": [],
      "name": "getLatestETHPrice",
      "outputs": [
        {
          "internalType": "uint256",
          "name": "",
          "type": "uint256"
        },
        {
          "internalType": "uint256",
          "name": "",
          "type": "uint256"
        }
      ],
      "stateMutability": "view",
      "type": "function"
    },
    {
      "inputs": [],
      "name": "name",
      "outputs": [
        {
          "internalType": "string",
          "name": "",
          "type": "string"
        }
      ],
      "stateMutability": "view",
      "type": "function"
    },
    {
      "inputs": [],
      "name": "owner",
      "outputs": [
        {
          "internalType": "address",
          "name": "",
          "type": "address"
        }
      ],
      "stateMutability": "view",
      "type": "function"
    },
    {
      "inputs": [],
      "name": "pricePerToken",
      "outputs": [
        {
          "internalType": "uint256",
          "name": "",
          "type": "uint256"
        }
      ],
      "stateMutability": "view",
      "type": "function"
    },
    {
      "inputs": [],
      "name": "renounceOwnership",
      "outputs": [],
      "stateMutability": "nonpayable",
      "type": "function"
    },
    {
      "inputs": [
        {
          "internalType": "uint256",
          "name": "amount",
          "type": "uint256"
        }
      ],
      "name": "sellTokens",
      "outputs": [],
      "stateMutability": "nonpayable",
      "type": "function"
    },
    {
      "inputs": [
        {
          "internalType": "uint256",
          "name": "amount",
          "type": "uint256"
        }
      ],
      "name": "sellTokensWithUSDC",
      "outputs": [],
      "stateMutability": "nonpayable",
      "type": "function"
    },
    {
      "inputs": [],
      "name": "symbol",
      "outputs": [
        {
          "internalType": "string",
          "name": "",
          "type": "string"
        }
      ],
      "stateMutability": "view",
      "type": "function"
    },
    {
      "inputs": [],
      "name": "totalSupply",
      "outputs": [
        {
          "internalType": "uint256",
          "name": "",
          "type": "uint256"
        }
      ],
      "stateMutability": "view",
      "type": "function"
    },
    {
      "inputs": [
        {
          "internalType": "address",
          "name": "to",
          "type": "address"
        },
        {
          "internalType": "uint256",
          "name": "value",
          "type": "uint256"
        }
      ],
      "name": "transfer",
      "outputs": [
        {
          "internalType": "bool",
          "name": "",
          "type": "bool"
        }
      ],
      "stateMutability": "nonpayable",
      "type": "function"
    },
    {
      "inputs": [
        {
          "internalType": "address",
          "name": "from",
          "type": "address"
        },
        {
          "internalType": "address",
          "name": "to",
          "type": "address"
        },
        {
          "internalType": "uint256",
          "name": "value",
          "type": "uint256"
        }
      ],
      "name": "transferFrom",
      "outputs": [
        {
          "internalType": "bool",
          "name": "",
          "type": "bool"
        }
      ],
      "stateMutability": "nonpayable",
      "type": "function"
    },
    {
      "inputs": [
        {
          "internalType": "address",
          "name": "newOwner",
          "type": "address"
        }
      ],
      "name": "transferOwnership",
      "outputs": [],
      "stateMutability": "nonpayable",
      "type": "function"
    },
    {
      "inputs": [
        {
          "internalType": "uint256",
          "name": "newPrice",
          "type": "uint256"
        }
      ],
      "name": "updatePrice",
      "outputs": [],
      "stateMutability": "nonpayable",
      "type": "function"
    },
    {
      "inputs": [],
      "name": "withdrawFunds",
      "outputs": [],
      "stateMutability": "nonpayable",
      "type": "function"
    },
    {
      "inputs": [],
      "name": "withdrawUSDC",
      "outputs": [],
      "stateMutability": "nonpayable",
      "type": "function"
    }
  ],
  "bytecode": "0x608060405234801561001057600080fd5b506040516123b23803806123b283398101604081905261002f9161034c565b338686600361003e8382610480565b50600461004b8282610480565b5050506001600160a01b03811661007d57604051631e4fbdf760e01b8152600060048201526024015b60405180910390fd5b610086816100dd565b506006839055600780546001600160a01b0319166001600160a01b03841617905560088190556100d2336100b8601290565b6100c390600a61063d565b6100cd9087610653565b61012f565b50505050505061067d565b600580546001600160a01b038381166001600160a01b0319831681179093556040519116919082907f8be0079c531659141344cd1fd0a4f28419497f9722a3daafe3b4186f6b6457e090600090a35050565b6001600160a01b0382166101595760405163ec442f0560e01b815260006004820152602401610074565b61016560008383610169565b5050565b6001600160a01b038316610194578060026000828254610189919061066a565b909155506102069050565b6001600160a01b038316600090815260208190526040902054818110156101e75760405163391434e360e21b81526001600160a01b03851660048201526024810182905260448101839052606401610074565b6001600160a01b03841660009081526020819052604090209082900390555b6001600160a01b03821661022257600280548290039055610241565b6001600160a01b03821660009081526020819052604090208054820190555b816001600160a01b0316836001600160a01b03167fddf252ad1be2c89b69c2b068fc378daa952ba7f163c4a11628f55a4df523b3ef8360405161028691815260200190565b60405180910390a3505050565b634e487b7160e01b600052604160045260246000fd5b600082601f8301126102ba57600080fd5b81516001600160401b038111156102d3576102d3610293565b604051601f8201601f19908116603f011681016001600160401b038111828210171561030157610301610293565b60405281815283820160200185101561031957600080fd5b60005b828110156103385760208186018101518383018201520161031c565b506000918101602001919091529392505050565b60008060008060008060c0878903121561036557600080fd5b86516001600160401b0381111561037b57600080fd5b61038789828a016102a9565b602089015190975090506001600160401b038111156103a557600080fd5b6103b189828a016102a9565b604089015160608a015160808b0151929850909650945090506001600160a01b03811681146103df57600080fd5b60a09790970151959894975092959194919391925050565b600181811c9082168061040b57607f821691505b60208210810361042b57634e487b7160e01b600052602260045260246000fd5b50919050565b601f82111561047b57806000526020600020601f840160051c810160208510156104585750805b601f840160051c820191505b818110156104785760008155600101610464565b50505b505050565b81516001600160401b0381111561049957610499610293565b6104ad816104a784546103f7565b84610431565b6020601f8211600181146104e157600083156104c95750848201515b600019600385901b1c1916600184901b178455610478565b600084815260208120601f198516915b8281101561051157878501518255602094850194600190920191016104f1565b508482101561052f5786840151600019600387901b60f8161c191681555b50505050600190811b01905550565b634e487b7160e01b600052601160045260246000fd5b6001815b600184111561058f578085048111156105735761057361053e565b600184161561058157908102905b60019390931c928002610558565b935093915050565b6000826105a657506001610637565b816105b357506000610637565b81600181146105c957600281146105d3576105ef565b6001915050610637565b60ff8411156105e4576105e461053e565b50506001821b610637565b5060208310610133831016604e8410600b8410161715610612575081810a610637565b61061f6000198484610554565b80600019048211156106335761063361053e565b0290505b92915050565b600061064c60ff841683610597565b9392505050565b80820281158282048414176106375761063761053e565b808201808211156106375761063761053e565b611d268061068c6000396000f3fe6080604052600436106101b65760003560e01c806370a08231116100ec578063a9059cbb1161008a578063c6f8485411610064578063c6f84854146104cc578063d8fc063d146104e2578063dd62ed3e146104f7578063f2fde38b1461053d57600080fd5b8063a9059cbb1461045c578063b0f0abe91461047c578063bb09d9b7146104a457600080fd5b80637b1b1de6116100c65780637b1b1de6146103f35780638d6cc56d146104095780638da5cb5b1461042957806395d89b411461044757600080fd5b806370a082311461037e578063715018a6146103b4578063777e0d86146103c957600080fd5b8063313ce567116101595780636000f4a8116101335780636000f4a8146102f15780636c11bcd3146103115780636d25e1751461033157806370147d671461036957600080fd5b8063313ce567146102a25780633610724e146102be57806340fbc166146102d157600080fd5b806318160ddd1161019557806318160ddd1461023857806323b872dd1461025757806324600fc314610277578063278de0001461028c57600080fd5b8062fe8edc146101bb57806306fdde03146101dd578063095ea7b314610208575b600080fd5b3480156101c757600080fd5b506101db6101d6366004611900565b61055d565b005b3480156101e957600080fd5b506101f261089c565b6040516101ff9190611919565b60405180910390f35b34801561021457600080fd5b50610228610223366004611983565b61092e565b60405190151581526020016101ff565b34801561024457600080fd5b506002545b6040519081526020016101ff565b34801561026357600080fd5b506102286102723660046119ad565b610948565b34801561028357600080fd5b506101db61096c565b34801561029857600080fd5b5061024960065481565b3480156102ae57600080fd5b50604051601281526020016101ff565b6101db6102cc366004611900565b610abf565b3480156102dd57600080fd5b506102496102ec366004611900565b610cd7565b3480156102fd57600080fd5b506101db61030c366004611900565b610d4e565b34801561031d57600080fd5b506101db61032c366004611900565b610fdb565b34801561033d57600080fd5b50600754610351906001600160a01b031681565b6040516001600160a01b0390911681526020016101ff565b34801561037557600080fd5b50610249600581565b34801561038a57600080fd5b506102496103993660046119ea565b6001600160a01b031660009081526020819052604090205490565b3480156103c057600080fd5b506101db6111ec565b3480156103d557600080fd5b506103de611200565b604080519283526020830191909152016101ff565b3480156103ff57600080fd5b5061024960085481565b34801561041557600080fd5b506101db610424366004611900565b61131e565b34801561043557600080fd5b506005546001600160a01b0316610351565b34801561045357600080fd5b506101f26113bd565b34801561046857600080fd5b50610228610477366004611983565b6113cc565b34801561048857600080fd5b50610351734adc67696ba383f43dd60a9e78f2c97fbbfc7cb181565b3480156104b057600080fd5b5061035173036cbd53842c5426634e7929541ec2318f3dcf7e81565b3480156104d857600080fd5b50610249610e1081565b3480156104ee57600080fd5b506101db6113da565b34801561050357600080fd5b50610249610512366004611a0c565b6001600160a01b03918216600090815260016020908152604080832093909416825291909152205490565b34801561054957600080fd5b506101db6105583660046119ea565b611554565b600081116105865760405162461bcd60e51b815260040161057d90611a3f565b60405180910390fd5b60006105946012600a611b73565b61059e9083611b82565b90506000600854836105b09190611b82565b905060006105c082612710611b82565b604051636eb1769f60e11b815233600482015230602482015290915073036cbd53842c5426634e7929541ec2318f3dcf7e908290829063dd62ed3e90604401602060405180830381865afa15801561061c573d6000803e3d6000fd5b505050506040513d601f19601f820116820180604052508101906106409190611b99565b101561068e5760405162461bcd60e51b815260206004820152601b60248201527f496e73756666696369656e74205553444320616c6c6f77616e63650000000000604482015260640161057d565b6040516370a0823160e01b815233600482015282906001600160a01b038316906370a0823190602401602060405180830381865afa1580156106d4573d6000803e3d6000fd5b505050506040513d601f19601f820116820180604052508101906106f89190611b99565b10156107465760405162461bcd60e51b815260206004820152601960248201527f496e73756666696369656e7420555344432062616c616e636500000000000000604482015260640161057d565b8361075c6103996005546001600160a01b031690565b10156107aa5760405162461bcd60e51b815260206004820152601d60248201527f496e73756666696369656e7420746f6b656e7320617661696c61626c65000000604482015260640161057d565b6040516323b872dd60e01b8152336004820152306024820152604481018390526001600160a01b038216906323b872dd906064016020604051808303816000875af11580156107fd573d6000803e3d6000fd5b505050506040513d601f19601f820116820180604052508101906108219190611bb2565b61083d5760405162461bcd60e51b815260040161057d90611bd4565b6108596108526005546001600160a01b031690565b3386611592565b604080518681526020810184905233917f3024efc901bf6742d553aa1adeec076633793502d7fb725834b92e033eaed89c91015b60405180910390a25050505050565b6060600380546108ab90611c02565b80601f01602080910402602001604051908101604052809291908181526020018280546108d790611c02565b80156109245780601f106108f957610100808354040283529160200191610924565b820191906000526020600020905b81548152906001019060200180831161090757829003601f168201915b5050505050905090565b60003361093c8185856115f6565b60019150505b92915050565b600033610956858285611603565b610961858585611592565b506001949350505050565b610974611682565b47806109b95760405162461bcd60e51b81526020600482015260146024820152734e6f2066756e647320746f20776974686472617760601b604482015260640161057d565b60006109cd6005546001600160a01b031690565b6001600160a01b03168260405160006040518083038185875af1925050503d8060008114610a17576040519150601f19603f3d011682016040523d82523d6000602084013e610a1c565b606091505b5050905080610a6d5760405162461bcd60e51b815260206004820152601860248201527f4661696c656420746f2077697468647261772066756e64730000000000000000604482015260640161057d565b6005546001600160a01b03166001600160a01b03167feaff4b37086828766ad3268786972c0cd24259d4c87a80f9d3963a3c3d999b0d83604051610ab391815260200190565b60405180910390a25050565b60008111610adf5760405162461bcd60e51b815260040161057d90611a3f565b6000610aed6012600a611b73565b610af79083611b82565b9050600060085483610b099190611b82565b90506000610b1682610cd7565b905080341015610b5f5760405162461bcd60e51b8152602060048201526014602482015273125b9cdd59999a58da595b9d081c185e5b595b9d60621b604482015260640161057d565b82610b756103996005546001600160a01b031690565b1015610bc35760405162461bcd60e51b815260206004820152601d60248201527f496e73756666696369656e7420746f6b656e7320617661696c61626c65000000604482015260640161057d565b610bdf610bd86005546001600160a01b031690565b3385611592565b604080518581526020810183905290810183905233907f0d1a0d5e3d583a0e92588799dd06e50fd78c07daf05f0cc06d7b848b1ca445f19060600160405180910390a26000610c2e8234611c3c565b90508015610cd057604051600090339083908381818185875af1925050503d8060008114610c78576040519150601f19603f3d011682016040523d82523d6000602084013e610c7d565b606091505b5050905080610cce5760405162461bcd60e51b815260206004820152601f60248201527f4661696c656420746f2072657475726e20657863657373207061796d656e7400604482015260640161057d565b505b5050505050565b600080610ce2611200565b50905060006305f5e100610cf7836064611b82565b610d019190611c4f565b905060006064610d12600582611c71565b610d1c9084611b82565b610d269190611c4f565b905080610d3b86670de0b6b3a7640000611b82565b610d459190611c4f565b95945050505050565b60008111610d6e5760405162461bcd60e51b815260040161057d90611a3f565b610d7a6012600a611b73565b610d849082611b82565b336000908152602081905260409020541015610de25760405162461bcd60e51b815260206004820152601a60248201527f496e73756666696369656e7420746f6b656e2062616c616e6365000000000000604482015260640161057d565b6000610df06012600a611b73565b610dfa9083611b82565b9050600060085483610e0c9190611b82565b90506000610e1c82612710611b82565b6040516370a0823160e01b815230600482015290915073036cbd53842c5426634e7929541ec2318f3dcf7e90829082906370a0823190602401602060405180830381865afa158015610e72573d6000803e3d6000fd5b505050506040513d601f19601f82011682018060405250810190610e969190611b99565b1015610ef25760405162461bcd60e51b815260206004820152602560248201527f496e73756666696369656e7420555344432062616c616e636520696e20636f6e6044820152641d1c9858dd60da1b606482015260840161057d565b610f0e33610f086005546001600160a01b031690565b86611592565b60405163a9059cbb60e01b8152336004820152602481018390526001600160a01b0382169063a9059cbb906044016020604051808303816000875af1158015610f5b573d6000803e3d6000fd5b505050506040513d601f19601f82011682018060405250810190610f7f9190611bb2565b610f9b5760405162461bcd60e51b815260040161057d90611bd4565b604080518681526000602082015290810184905233907f6db63bebf1e6540277744df32846ebdb98385b1a73f2d5de49b28348add63f509060600161088d565b60008111610ffb5760405162461bcd60e51b815260040161057d90611a3f565b6110076012600a611b73565b6110119082611b82565b33600090815260208190526040902054101561106f5760405162461bcd60e51b815260206004820152601a60248201527f496e73756666696369656e7420746f6b656e2062616c616e6365000000000000604482015260640161057d565b600061107d6012600a611b73565b6110879083611b82565b90506000600854836110999190611b82565b905060006110a682610cd7565b9050804710156110f85760405162461bcd60e51b815260206004820152601d60248201527f496e73756666696369656e7420636f6e74726163742062616c616e6365000000604482015260640161057d565b6111143361110e6005546001600160a01b031690565b85611592565b604051600090339083908381818185875af1925050503d8060008114611156576040519150601f19603f3d011682016040523d82523d6000602084013e61115b565b606091505b50509050806111ac5760405162461bcd60e51b815260206004820152601c60248201527f4661696c656420746f2073656e642045544820746f2073656c6c657200000000604482015260640161057d565b604080518681526020810184905290810184905233907f6db63bebf1e6540277744df32846ebdb98385b1a73f2d5de49b28348add63f509060600161088d565b6111f4611682565b6111fe60006116af565b565b600080600080734adc67696ba383f43dd60a9e78f2c97fbbfc7cb16001600160a01b031663feaf968c6040518163ffffffff1660e01b815260040160a060405180830381865afa158015611258573d6000803e3d6000fd5b505050506040513d601f19601f8201168201806040525081019061127c9190611c9e565b50935050925050600082136112c75760405162461bcd60e51b8152602060048201526011602482015270496e76616c69642045544820707269636560781b604482015260640161057d565b610e106112d48242611c3c565b11156113155760405162461bcd60e51b815260206004820152601060248201526f5374616c65207072696365206461746160801b604482015260640161057d565b90939092509050565b6007546001600160a01b031633146113785760405162461bcd60e51b815260206004820152601e60248201527f43616c6c6572206973206e6f7420746865206661726d20666163746f72790000604482015260640161057d565b600880549082905560408051828152602081018490527f945c1c4e99aa89f648fbfe3df471b916f719e16d960fcec0737d4d56bd696838910160405180910390a15050565b6060600480546108ab90611c02565b60003361093c818585611592565b6113e2611682565b6040516370a0823160e01b815230600482015273036cbd53842c5426634e7929541ec2318f3dcf7e9060009082906370a0823190602401602060405180830381865afa158015611436573d6000803e3d6000fd5b505050506040513d601f19601f8201168201806040525081019061145a9190611b99565b9050600081116114a25760405162461bcd60e51b81526020600482015260136024820152724e6f205553444320746f20776974686472617760681b604482015260640161057d565b816001600160a01b031663a9059cbb6114c36005546001600160a01b031690565b6040516001600160e01b031960e084901b1681526001600160a01b039091166004820152602481018490526044016020604051808303816000875af1158015611510573d6000803e3d6000fd5b505050506040513d601f19601f820116820180604052508101906115349190611bb2565b6115505760405162461bcd60e51b815260040161057d90611bd4565b5050565b61155c611682565b6001600160a01b03811661158657604051631e4fbdf760e01b81526000600482015260240161057d565b61158f816116af565b50565b6001600160a01b0383166115bc57604051634b637e8f60e11b81526000600482015260240161057d565b6001600160a01b0382166115e65760405163ec442f0560e01b81526000600482015260240161057d565b6115f1838383611701565b505050565b6115f1838383600161182b565b6001600160a01b0383811660009081526001602090815260408083209386168352929052205460001981101561167c578181101561166d57604051637dc7a0d960e11b81526001600160a01b0384166004820152602481018290526044810183905260640161057d565b61167c8484848403600061182b565b50505050565b6005546001600160a01b031633146111fe5760405163118cdaa760e01b815233600482015260240161057d565b600580546001600160a01b038381166001600160a01b0319831681179093556040519116919082907f8be0079c531659141344cd1fd0a4f28419497f9722a3daafe3b4186f6b6457e090600090a35050565b6001600160a01b03831661172c5780600260008282546117219190611c71565b9091555061179e9050565b6001600160a01b0383166000908152602081905260409020548181101561177f5760405163391434e360e21b81526001600160a01b0385166004820152602481018290526044810183905260640161057d565b6001600160a01b03841660009081526020819052604090209082900390555b6001600160a01b0382166117ba576002805482900390556117d9565b6001600160a01b03821660009081526020819052604090208054820190555b816001600160a01b0316836001600160a01b03167fddf252ad1be2c89b69c2b068fc378daa952ba7f163c4a11628f55a4df523b3ef8360405161181e91815260200190565b60405180910390a3505050565b6001600160a01b0384166118555760405163e602df0560e01b81526000600482015260240161057d565b6001600160a01b03831661187f57604051634a1406b160e11b81526000600482015260240161057d565b6001600160a01b038085166000908152600160209081526040808320938716835292905220829055801561167c57826001600160a01b0316846001600160a01b03167f8c5be1e5ebec7d5bd14f71427d1e84f3dd0314c0f7b2291e5b200ac8c7c3b925846040516118f291815260200190565b60405180910390a350505050565b60006020828403121561191257600080fd5b5035919050565b602081526000825180602084015260005b81811015611947576020818601810151604086840101520161192a565b506000604082850101526040601f19601f83011684010191505092915050565b80356001600160a01b038116811461197e57600080fd5b919050565b6000806040838503121561199657600080fd5b61199f83611967565b946020939093013593505050565b6000806000606084860312156119c257600080fd5b6119cb84611967565b92506119d960208501611967565b929592945050506040919091013590565b6000602082840312156119fc57600080fd5b611a0582611967565b9392505050565b60008060408385031215611a1f57600080fd5b611a2883611967565b9150611a3660208401611967565b90509250929050565b6020808252601d908201527f416d6f756e74206d7573742062652067726561746572207468616e2030000000604082015260600190565b634e487b7160e01b600052601160045260246000fd5b6001815b6001841115611ac757808504811115611aab57611aab611a76565b6001841615611ab957908102905b60019390931c928002611a90565b935093915050565b600082611ade57506001610942565b81611aeb57506000610942565b8160018114611b015760028114611b0b57611b27565b6001915050610942565b60ff841115611b1c57611b1c611a76565b50506001821b610942565b5060208310610133831016604e8410600b8410161715611b4a575081810a610942565b611b576000198484611a8c565b8060001904821115611b6b57611b6b611a76565b029392505050565b6000611a0560ff841683611acf565b808202811582820484141761094257610942611a76565b600060208284031215611bab57600080fd5b5051919050565b600060208284031215611bc457600080fd5b81518015158114611a0557600080fd5b6020808252601490820152731554d110c81d1c985b9cd9995c8819985a5b195960621b604082015260600190565b600181811c90821680611c1657607f821691505b602082108103611c3657634e487b7160e01b600052602260045260246000fd5b50919050565b8181038181111561094257610942611a76565b600082611c6c57634e487b7160e01b600052601260045260246000fd5b500490565b8082018082111561094257610942611a76565b805169ffffffffffffffffffff8116811461197e57600080fd5b600080600080600060a08688031215611cb657600080fd5b611cbf86611c84565b60208701516040880151606089015192975090955093509150611ce460808701611c84565b9050929550929590935056fea2646970667358221220d70e0365484b8b83f45b61c2ddf05f82ac1d2149a1305398b4a4084f13226e9464736f6c634300081c0033",
  "linkReferences": {},
  "deployedLinkReferences": {}
}