{
  "_format": "hh-sol-artifact-1",
  "contractName": "FarmToken",
  "sourceName": "contracts/FarmToken.sol",
  "abi": [
    {
      "inputs": [
        {
          "internalType": "string",
          "name": "name",
          "type": "string"
        },
        {
          "internalType": "string",
          "name": "symbol",
          "type": "string"
        },
        {
          "internalType": "uint256",
          "name": "_totalSupply",
          "type": "uint256"
        },
        {
          "internalType": "uint256",
          "name": "_farmId",
          "type": "uint256"
        },
        {
          "internalType": "address",
          "name": "_farmFactory",
          "type": "address"
        },
        {
          "internalType": "uint256",
          "name": "_pricePerToken",
          "type": "uint256"
        }
      ],
      "stateMutability": "nonpayable",
      "type": "constructor"
    },
    {
      "inputs": [
        {
          "internalType": "address",
          "name": "spender",
          "type": "address"
        },
        {
          "internalType": "uint256",
          "name": "allowance",
          "type": "uint256"
        },
        {
          "internalType": "uint256",
          "name": "needed",
          "type": "uint256"
        }
      ],
      "name": "ERC20InsufficientAllowance",
      "type": "error"
    },
    {
      "inputs": [
        {
          "internalType": "address",
          "name": "sender",
          "type": "address"
        },
        {
          "internalType": "uint256",
          "name": "balance",
          "type": "uint256"
        },
        {
          "internalType": "uint256",
          "name": "needed",
          "type": "uint256"
        }
      ],
      "name": "ERC20InsufficientBalance",
      "type": "error"
    },
    {
      "inputs": [
        {
          "internalType": "address",
          "name": "approver",
          "type": "address"
        }
      ],
      "name": "ERC20InvalidApprover",
      "type": "error"
    },
    {
      "inputs": [
        {
          "internalType": "address",
          "name": "receiver",
          "type": "address"
        }
      ],
      "name": "ERC20InvalidReceiver",
      "type": "error"
    },
    {
      "inputs": [
        {
          "internalType": "address",
          "name": "sender",
          "type": "address"
        }
      ],
      "name": "ERC20InvalidSender",
      "type": "error"
    },
    {
      "inputs": [
        {
          "internalType": "address",
          "name": "spender",
          "type": "address"
        }
      ],
      "name": "ERC20InvalidSpender",
      "type": "error"
    },
    {
      "inputs": [
        {
          "internalType": "address",
          "name": "owner",
          "type": "address"
        }
      ],
      "name": "OwnableInvalidOwner",
      "type": "error"
    },
    {
      "inputs": [
        {
          "internalType": "address",
          "name": "account",
          "type": "address"
        }
      ],
      "name": "OwnableUnauthorizedAccount",
      "type": "error"
    },
    {
      "anonymous": false,
      "inputs": [
        {
          "indexed": true,
          "internalType": "address",
          "name": "owner",
          "type": "address"
        },
        {
          "indexed": true,
          "internalType": "address",
          "name": "spender",
          "type": "address"
        },
        {
          "indexed": false,
          "internalType": "uint256",
          "name": "value",
          "type": "uint256"
        }
      ],
      "name": "Approval",
      "type": "event"
    },
    {
      "anonymous": false,
      "inputs": [
        {
          "indexed": true,
          "internalType": "address",
          "name": "owner",
          "type": "address"
        },
        {
          "indexed": false,
          "internalType": "uint256",
          "name": "amount",
          "type": "uint256"
        }
      ],
      "name": "FundsWithdrawn",
      "type": "event"
    },
    {
      "anonymous": false,
      "inputs": [
        {
          "indexed": true,
          "internalType": "address",
          "name": "previousOwner",
          "type": "address"
        },
        {
          "indexed": true,
          "internalType": "address",
          "name": "newOwner",
          "type": "address"
        }
      ],
      "name": "OwnershipTransferred",
      "type": "event"
    },
    {
      "anonymous": false,
      "inputs": [
        {
          "indexed": false,
          "internalType": "uint256",
          "name": "oldPrice",
          "type": "uint256"
        },
        {
          "indexed": false,
          "internalType": "uint256",
          "name": "newPrice",
          "type": "uint256"
        }
      ],
      "name": "PriceUpdated",
      "type": "event"
    },
    {
      "anonymous": false,
      "inputs": [
        {
          "indexed": true,
          "internalType": "address",
          "name": "buyer",
          "type": "address"
        },
        {
          "indexed": false,
          "internalType": "uint256",
          "name": "amount",
          "type": "uint256"
        },
        {
          "indexed": false,
          "internalType": "uint256",
          "name": "costInWei",
          "type": "uint256"
        },
        {
          "indexed": false,
          "internalType": "uint256",
          "name": "costInUsd",
          "type": "uint256"
        }
      ],
      "name": "TokensPurchased",
      "type": "event"
    },
    {
      "anonymous": false,
      "inputs": [
        {
          "indexed": true,
          "internalType": "address",
          "name": "buyer",
          "type": "address"
        },
        {
          "indexed": false,
          "internalType": "uint256",
          "name": "amount",
          "type": "uint256"
        },
        {
          "indexed": false,
          "internalType": "uint256",
          "name": "usdcAmount",
          "type": "uint256"
        }
      ],
      "name": "TokensPurchasedWithUSDC",
      "type": "event"
    },
    {
      "anonymous": false,
      "inputs": [
        {
          "indexed": true,
          "internalType": "address",
          "name": "seller",
          "type": "address"
        },
        {
          "indexed": false,
          "internalType": "uint256",
          "name": "amount",
          "type": "uint256"
        },
        {
          "indexed": false,
          "internalType": "uint256",
          "name": "costInWei",
          "type": "uint256"
        },
        {
          "indexed": false,
          "internalType": "uint256",
          "name": "costInUsd",
          "type": "uint256"
        }
      ],
      "name": "TokensSold",
      "type": "event"
    },
    {
      "anonymous": false,
      "inputs": [
        {
          "indexed": true,
          "internalType": "address",
          "name": "from",
          "type": "address"
        },
        {
          "indexed": true,
          "internalType": "address",
          "name": "to",
          "type": "address"
        },
        {
          "indexed": false,
          "internalType": "uint256",
          "name": "value",
          "type": "uint256"
        }
      ],
      "name": "Transfer",
      "type": "event"
    },
    {
      "inputs": [],
      "name": "ETH_USD_PRICE_FEED",
      "outputs": [
        {
          "internalType": "address",
          "name": "",
          "type": "address"
        }
      ],
      "stateMutability": "view",
      "type": "function"
    },
    {
      "inputs": [],
      "name": "PRICE_SAFETY_MARGIN",
      "outputs": [
        {
          "internalType": "uint256",
          "name": "",
          "type": "uint256"
        }
      ],
      "stateMutability": "view",
      "type": "function"
    },
    {
      "inputs": [],
      "name": "PRICE_VALIDITY_DURATION",
      "outputs": [
        {
          "internalType": "uint256",
          "name": "",
          "type": "uint256"
        }
      ],
      "stateMutability": "view",
      "type": "function"
    },
    {
      "inputs": [],
      "name": "USDC_ADDRESS",
      "outputs": [
        {
          "internalType": "address",
          "name": "",
          "type": "address"
        }
      ],
      "stateMutability": "view",
      "type": "function"
    },
    {
      "inputs": [
        {
          "internalType": "address",
          "name": "owner",
          "type": "address"
        },
        {
          "internalType": "address",
          "name": "spender",
          "type": "address"
        }
      ],
      "name": "allowance",
      "outputs": [
        {
          "internalType": "uint256",
          "name": "",
          "type": "uint256"
        }
      ],
      "stateMutability": "view",
      "type": "function"
    },
    {
      "inputs": [
        {
          "internalType": "address",
          "name": "spender",
          "type": "address"
        },
        {
          "internalType": "uint256",
          "name": "value",
          "type": "uint256"
        }
      ],
      "name": "approve",
      "outputs": [
        {
          "internalType": "bool",
          "name": "",
          "type": "bool"
        }
      ],
      "stateMutability": "nonpayable",
      "type": "function"
    },
    {
      "inputs": [
        {
          "internalType": "address",
          "name": "account",
          "type": "address"
        }
      ],
      "name": "balanceOf",
      "outputs": [
        {
          "internalType": "uint256",
          "name": "",
          "type": "uint256"
        }
      ],
      "stateMutability": "view",
      "type": "function"
    },
    {
      "inputs": [
        {
          "internalType": "uint256",
          "name": "amount",
          "type": "uint256"
        }
      ],
      "name": "buyTokens",
      "outputs": [],
      "stateMutability": "payable",
      "type": "function"
    },
    {
      "inputs": [
        {
          "internalType": "uint256",
          "name": "amount",
          "type": "uint256"
        }
      ],
      "name": "buyTokensWithUSDC",
      "outputs": [],
      "stateMutability": "nonpayable",
      "type": "function"
    },
    {
      "inputs": [
        {
          "internalType": "uint256",
          "name": "usdCents",
          "type": "uint256"
        }
      ],
      "name": "calculateETHAmount",
      "outputs": [
        {
          "internalType": "uint256",
          "name": "",
          "type": "uint256"
        }
      ],
      "stateMutability": "view",
      "type": "function"
    },
    {
      "inputs": [],
      "name": "decimals",
      "outputs": [
        {
          "internalType": "uint8",
          "name": "",
          "type": "uint8"
        }
      ],
      "stateMutability": "view",
      "type": "function"
    },
    {
      "inputs": [],
      "name": "farmFactory",
      "outputs": [
        {
          "internalType": "address",
          "name": "",
          "type": "address"
        }
      ],
      "stateMutability": "view",
      "type": "function"
    },
    {
      "inputs": [],
      "name": "farmId",
      "outputs": [
        {
          "internalType": "uint256",
          "name": "",
          "type": "uint256"
        }
      ],
      "stateMutability": "view",
      "type": "function"
    },
    {
      "inputs": [],
      "name": "getLatestETHPrice",
      "outputs": [
        {
          "internalType": "uint256",
          "name": "",
          "type": "uint256"
        },
        {
          "internalType": "uint256",
          "name": "",
          "type": "uint256"
        }
      ],
      "stateMutability": "view",
      "type": "function"
    },
    {
      "inputs": [],
      "name": "name",
      "outputs": [
        {
          "internalType": "string",
          "name": "",
          "type": "string"
        }
      ],
      "stateMutability": "view",
      "type": "function"
    },
    {
      "inputs": [],
      "name": "owner",
      "outputs": [
        {
          "internalType": "address",
          "name": "",
          "type": "address"
        }
      ],
      "stateMutability": "view",
      "type": "function"
    },
    {
      "inputs": [],
      "name": "pricePerToken",
      "outputs": [
        {
          "internalType": "uint256",
          "name": "",
          "type": "uint256"
        }
      ],
      "stateMutability": "view",
      "type": "function"
    },
    {
      "inputs": [],
      "name": "renounceOwnership",
      "outputs": [],
      "stateMutability": "nonpayable",
      "type": "function"
    },
    {
      "inputs": [
        {
          "internalType": "uint256",
          "name": "amount",
          "type": "uint256"
        }
      ],
      "name": "sellTokens",
      "outputs": [],
      "stateMutability": "nonpayable",
      "type": "function"
    },
    {
      "inputs": [],
      "name": "symbol",
      "outputs": [
        {
          "internalType": "string",
          "name": "",
          "type": "string"
        }
      ],
      "stateMutability": "view",
      "type": "function"
    },
    {
      "inputs": [],
      "name": "totalSupply",
      "outputs": [
        {
          "internalType": "uint256",
          "name": "",
          "type": "uint256"
        }
      ],
      "stateMutability": "view",
      "type": "function"
    },
    {
      "inputs": [
        {
          "internalType": "address",
          "name": "to",
          "type": "address"
        },
        {
          "internalType": "uint256",
          "name": "value",
          "type": "uint256"
        }
      ],
      "name": "transfer",
      "outputs": [
        {
          "internalType": "bool",
          "name": "",
          "type": "bool"
        }
      ],
      "stateMutability": "nonpayable",
      "type": "function"
    },
    {
      "inputs": [
        {
          "internalType": "address",
          "name": "from",
          "type": "address"
        },
        {
          "internalType": "address",
          "name": "to",
          "type": "address"
        },
        {
          "internalType": "uint256",
          "name": "value",
          "type": "uint256"
        }
      ],
      "name": "transferFrom",
      "outputs": [
        {
          "internalType": "bool",
          "name": "",
          "type": "bool"
        }
      ],
      "stateMutability": "nonpayable",
      "type": "function"
    },
    {
      "inputs": [
        {
          "internalType": "address",
          "name": "newOwner",
          "type": "address"
        }
      ],
      "name": "transferOwnership",
      "outputs": [],
      "stateMutability": "nonpayable",
      "type": "function"
    },
    {
      "inputs": [
        {
          "internalType": "uint256",
          "name": "newPrice",
          "type": "uint256"
        }
      ],
      "name": "updatePrice",
      "outputs": [],
      "stateMutability": "nonpayable",
      "type": "function"
    },
    {
      "inputs": [],
      "name": "withdrawFunds",
      "outputs": [],
      "stateMutability": "nonpayable",
      "type": "function"
    },
    {
      "inputs": [],
      "name": "withdrawUSDC",
      "outputs": [],
      "stateMutability": "nonpayable",
      "type": "function"
    }
  ],
  "bytecode": "0x608060405234801561001057600080fd5b5060405161210a38038061210a83398101604081905261002f9161034c565b338686600361003e8382610480565b50600461004b8282610480565b5050506001600160a01b03811661007d57604051631e4fbdf760e01b8152600060048201526024015b60405180910390fd5b610086816100dd565b506006839055600780546001600160a01b0319166001600160a01b03841617905560088190556100d2336100b8601290565b6100c390600a61063d565b6100cd9087610653565b61012f565b50505050505061067d565b600580546001600160a01b038381166001600160a01b0319831681179093556040519116919082907f8be0079c531659141344cd1fd0a4f28419497f9722a3daafe3b4186f6b6457e090600090a35050565b6001600160a01b0382166101595760405163ec442f0560e01b815260006004820152602401610074565b61016560008383610169565b5050565b6001600160a01b038316610194578060026000828254610189919061066a565b909155506102069050565b6001600160a01b038316600090815260208190526040902054818110156101e75760405163391434e360e21b81526001600160a01b03851660048201526024810182905260448101839052606401610074565b6001600160a01b03841660009081526020819052604090209082900390555b6001600160a01b03821661022257600280548290039055610241565b6001600160a01b03821660009081526020819052604090208054820190555b816001600160a01b0316836001600160a01b03167fddf252ad1be2c89b69c2b068fc378daa952ba7f163c4a11628f55a4df523b3ef8360405161028691815260200190565b60405180910390a3505050565b634e487b7160e01b600052604160045260246000fd5b600082601f8301126102ba57600080fd5b81516001600160401b038111156102d3576102d3610293565b604051601f8201601f19908116603f011681016001600160401b038111828210171561030157610301610293565b60405281815283820160200185101561031957600080fd5b60005b828110156103385760208186018101518383018201520161031c565b506000918101602001919091529392505050565b60008060008060008060c0878903121561036557600080fd5b86516001600160401b0381111561037b57600080fd5b61038789828a016102a9565b602089015190975090506001600160401b038111156103a557600080fd5b6103b189828a016102a9565b604089015160608a015160808b0151929850909650945090506001600160a01b03811681146103df57600080fd5b60a09790970151959894975092959194919391925050565b600181811c9082168061040b57607f821691505b60208210810361042b57634e487b7160e01b600052602260045260246000fd5b50919050565b601f82111561047b57806000526020600020601f840160051c810160208510156104585750805b601f840160051c820191505b818110156104785760008155600101610464565b50505b505050565b81516001600160401b0381111561049957610499610293565b6104ad816104a784546103f7565b84610431565b6020601f8211600181146104e157600083156104c95750848201515b600019600385901b1c1916600184901b178455610478565b600084815260208120601f198516915b8281101561051157878501518255602094850194600190920191016104f1565b508482101561052f5786840151600019600387901b60f8161c191681555b50505050600190811b01905550565b634e487b7160e01b600052601160045260246000fd5b6001815b600184111561058f578085048111156105735761057361053e565b600184161561058157908102905b60019390931c928002610558565b935093915050565b6000826105a657506001610637565b816105b357506000610637565b81600181146105c957600281146105d3576105ef565b6001915050610637565b60ff8411156105e4576105e461053e565b50506001821b610637565b5060208310610133831016604e8410600b8410161715610612575081810a610637565b61061f6000198484610554565b80600019048211156106335761063361053e565b0290505b92915050565b600061064c60ff841683610597565b9392505050565b80820281158282048414176106375761063761053e565b808201808211156106375761063761053e565b611a7e8061068c6000396000f3fe60806040526004361061019b5760003560e01c806370a08231116100ec578063a9059cbb1161008a578063c6f8485411610064578063c6f8485414610491578063d8fc063d146104a7578063dd62ed3e146104bc578063f2fde38b1461050257600080fd5b8063a9059cbb14610421578063b0f0abe914610441578063bb09d9b71461046957600080fd5b80637b1b1de6116100c65780637b1b1de6146103b85780638d6cc56d146103ce5780638da5cb5b146103ee57806395d89b411461040c57600080fd5b806370a0823114610343578063715018a614610379578063777e0d861461038e57600080fd5b8063278de0001161015957806340fbc1661161013357806340fbc166146102b65780636c11bcd3146102d65780636d25e175146102f657806370147d671461032e57600080fd5b8063278de00014610271578063313ce567146102875780633610724e146102a357600080fd5b8062fe8edc146101a057806306fdde03146101c2578063095ea7b3146101ed57806318160ddd1461021d57806323b872dd1461023c57806324600fc31461025c575b600080fd5b3480156101ac57600080fd5b506101c06101bb366004611686565b610522565b005b3480156101ce57600080fd5b506101d7610888565b6040516101e4919061169f565b60405180910390f35b3480156101f957600080fd5b5061020d610208366004611709565b61091a565b60405190151581526020016101e4565b34801561022957600080fd5b506002545b6040519081526020016101e4565b34801561024857600080fd5b5061020d610257366004611733565b610934565b34801561026857600080fd5b506101c0610958565b34801561027d57600080fd5b5061022e60065481565b34801561029357600080fd5b50604051601281526020016101e4565b6101c06102b1366004611686565b610aab565b3480156102c257600080fd5b5061022e6102d1366004611686565b610cc3565b3480156102e257600080fd5b506101c06102f1366004611686565b610d3a565b34801561030257600080fd5b50600754610316906001600160a01b031681565b6040516001600160a01b0390911681526020016101e4565b34801561033a57600080fd5b5061022e600581565b34801561034f57600080fd5b5061022e61035e366004611770565b6001600160a01b031660009081526020819052604090205490565b34801561038557600080fd5b506101c0610f4b565b34801561039a57600080fd5b506103a3610f5f565b604080519283526020830191909152016101e4565b3480156103c457600080fd5b5061022e60085481565b3480156103da57600080fd5b506101c06103e9366004611686565b61107d565b3480156103fa57600080fd5b506005546001600160a01b0316610316565b34801561041857600080fd5b506101d761111c565b34801561042d57600080fd5b5061020d61043c366004611709565b61112b565b34801561044d57600080fd5b50610316734adc67696ba383f43dd60a9e78f2c97fbbfc7cb181565b34801561047557600080fd5b5061031673036cbd53842c5426634e7929541ec2318f3dcf7e81565b34801561049d57600080fd5b5061022e610e1081565b3480156104b357600080fd5b506101c0611139565b3480156104c857600080fd5b5061022e6104d7366004611792565b6001600160a01b03918216600090815260016020908152604080832093909416825291909152205490565b34801561050e57600080fd5b506101c061051d366004611770565b6112da565b6000811161054b5760405162461bcd60e51b8152600401610542906117c5565b60405180910390fd5b60006105596012600a6118f9565b6105639083611908565b90506000600854836105759190611908565b9050600061058582612710611908565b604051636eb1769f60e11b815233600482015230602482015290915073036cbd53842c5426634e7929541ec2318f3dcf7e908290829063dd62ed3e90604401602060405180830381865afa1580156105e1573d6000803e3d6000fd5b505050506040513d601f19601f82011682018060405250810190610605919061191f565b10156106535760405162461bcd60e51b815260206004820152601b60248201527f496e73756666696369656e74205553444320616c6c6f77616e636500000000006044820152606401610542565b6040516370a0823160e01b815233600482015282906001600160a01b038316906370a0823190602401602060405180830381865afa158015610699573d6000803e3d6000fd5b505050506040513d601f19601f820116820180604052508101906106bd919061191f565b101561070b5760405162461bcd60e51b815260206004820152601960248201527f496e73756666696369656e7420555344432062616c616e6365000000000000006044820152606401610542565b8361072161035e6005546001600160a01b031690565b101561076f5760405162461bcd60e51b815260206004820152601d60248201527f496e73756666696369656e7420746f6b656e7320617661696c61626c650000006044820152606401610542565b6040516323b872dd60e01b8152336004820152306024820152604481018390526001600160a01b038216906323b872dd906064016020604051808303816000875af11580156107c2573d6000803e3d6000fd5b505050506040513d601f19601f820116820180604052508101906107e69190611938565b6108295760405162461bcd60e51b81526020600482015260146024820152731554d110c81d1c985b9cd9995c8819985a5b195960621b6044820152606401610542565b61084561083e6005546001600160a01b031690565b3386611318565b604080518681526020810184905233917f3024efc901bf6742d553aa1adeec076633793502d7fb725834b92e033eaed89c91015b60405180910390a25050505050565b6060600380546108979061195a565b80601f01602080910402602001604051908101604052809291908181526020018280546108c39061195a565b80156109105780601f106108e557610100808354040283529160200191610910565b820191906000526020600020905b8154815290600101906020018083116108f357829003601f168201915b5050505050905090565b60003361092881858561137c565b60019150505b92915050565b600033610942858285611389565b61094d858585611318565b506001949350505050565b610960611408565b47806109a55760405162461bcd60e51b81526020600482015260146024820152734e6f2066756e647320746f20776974686472617760601b6044820152606401610542565b60006109b96005546001600160a01b031690565b6001600160a01b03168260405160006040518083038185875af1925050503d8060008114610a03576040519150601f19603f3d011682016040523d82523d6000602084013e610a08565b606091505b5050905080610a595760405162461bcd60e51b815260206004820152601860248201527f4661696c656420746f2077697468647261772066756e647300000000000000006044820152606401610542565b6005546001600160a01b03166001600160a01b03167feaff4b37086828766ad3268786972c0cd24259d4c87a80f9d3963a3c3d999b0d83604051610a9f91815260200190565b60405180910390a25050565b60008111610acb5760405162461bcd60e51b8152600401610542906117c5565b6000610ad96012600a6118f9565b610ae39083611908565b9050600060085483610af59190611908565b90506000610b0282610cc3565b905080341015610b4b5760405162461bcd60e51b8152602060048201526014602482015273125b9cdd59999a58da595b9d081c185e5b595b9d60621b6044820152606401610542565b82610b6161035e6005546001600160a01b031690565b1015610baf5760405162461bcd60e51b815260206004820152601d60248201527f496e73756666696369656e7420746f6b656e7320617661696c61626c650000006044820152606401610542565b610bcb610bc46005546001600160a01b031690565b3385611318565b604080518581526020810183905290810183905233907f0d1a0d5e3d583a0e92588799dd06e50fd78c07daf05f0cc06d7b848b1ca445f19060600160405180910390a26000610c1a8234611994565b90508015610cbc57604051600090339083908381818185875af1925050503d8060008114610c64576040519150601f19603f3d011682016040523d82523d6000602084013e610c69565b606091505b5050905080610cba5760405162461bcd60e51b815260206004820152601f60248201527f4661696c656420746f2072657475726e20657863657373207061796d656e74006044820152606401610542565b505b5050505050565b600080610cce610f5f565b50905060006305f5e100610ce3836064611908565b610ced91906119a7565b905060006064610cfe6005826119c9565b610d089084611908565b610d1291906119a7565b905080610d2786670de0b6b3a7640000611908565b610d3191906119a7565b95945050505050565b60008111610d5a5760405162461bcd60e51b8152600401610542906117c5565b610d666012600a6118f9565b610d709082611908565b336000908152602081905260409020541015610dce5760405162461bcd60e51b815260206004820152601a60248201527f496e73756666696369656e7420746f6b656e2062616c616e63650000000000006044820152606401610542565b6000610ddc6012600a6118f9565b610de69083611908565b9050600060085483610df89190611908565b90506000610e0582610cc3565b905080471015610e575760405162461bcd60e51b815260206004820152601d60248201527f496e73756666696369656e7420636f6e74726163742062616c616e63650000006044820152606401610542565b610e7333610e6d6005546001600160a01b031690565b85611318565b604051600090339083908381818185875af1925050503d8060008114610eb5576040519150601f19603f3d011682016040523d82523d6000602084013e610eba565b606091505b5050905080610f0b5760405162461bcd60e51b815260206004820152601c60248201527f4661696c656420746f2073656e642045544820746f2073656c6c6572000000006044820152606401610542565b604080518681526020810184905290810184905233907f6db63bebf1e6540277744df32846ebdb98385b1a73f2d5de49b28348add63f5090606001610879565b610f53611408565b610f5d6000611435565b565b600080600080734adc67696ba383f43dd60a9e78f2c97fbbfc7cb16001600160a01b031663feaf968c6040518163ffffffff1660e01b815260040160a060405180830381865afa158015610fb7573d6000803e3d6000fd5b505050506040513d601f19601f82011682018060405250810190610fdb91906119f6565b50935050925050600082136110265760405162461bcd60e51b8152602060048201526011602482015270496e76616c69642045544820707269636560781b6044820152606401610542565b610e106110338242611994565b11156110745760405162461bcd60e51b815260206004820152601060248201526f5374616c65207072696365206461746160801b6044820152606401610542565b90939092509050565b6007546001600160a01b031633146110d75760405162461bcd60e51b815260206004820152601e60248201527f43616c6c6572206973206e6f7420746865206661726d20666163746f727900006044820152606401610542565b600880549082905560408051828152602081018490527f945c1c4e99aa89f648fbfe3df471b916f719e16d960fcec0737d4d56bd696838910160405180910390a15050565b6060600480546108979061195a565b600033610928818585611318565b611141611408565b6040516370a0823160e01b815230600482015273036cbd53842c5426634e7929541ec2318f3dcf7e9060009082906370a0823190602401602060405180830381865afa158015611195573d6000803e3d6000fd5b505050506040513d601f19601f820116820180604052508101906111b9919061191f565b9050600081116112015760405162461bcd60e51b81526020600482015260136024820152724e6f205553444320746f20776974686472617760681b6044820152606401610542565b816001600160a01b031663a9059cbb6112226005546001600160a01b031690565b6040516001600160e01b031960e084901b1681526001600160a01b039091166004820152602481018490526044016020604051808303816000875af115801561126f573d6000803e3d6000fd5b505050506040513d601f19601f820116820180604052508101906112939190611938565b6112d65760405162461bcd60e51b81526020600482015260146024820152731554d110c81d1c985b9cd9995c8819985a5b195960621b6044820152606401610542565b5050565b6112e2611408565b6001600160a01b03811661130c57604051631e4fbdf760e01b815260006004820152602401610542565b61131581611435565b50565b6001600160a01b03831661134257604051634b637e8f60e11b815260006004820152602401610542565b6001600160a01b03821661136c5760405163ec442f0560e01b815260006004820152602401610542565b611377838383611487565b505050565b61137783838360016115b1565b6001600160a01b0383811660009081526001602090815260408083209386168352929052205460001981101561140257818110156113f357604051637dc7a0d960e11b81526001600160a01b03841660048201526024810182905260448101839052606401610542565b611402848484840360006115b1565b50505050565b6005546001600160a01b03163314610f5d5760405163118cdaa760e01b8152336004820152602401610542565b600580546001600160a01b038381166001600160a01b0319831681179093556040519116919082907f8be0079c531659141344cd1fd0a4f28419497f9722a3daafe3b4186f6b6457e090600090a35050565b6001600160a01b0383166114b25780600260008282546114a791906119c9565b909155506115249050565b6001600160a01b038316600090815260208190526040902054818110156115055760405163391434e360e21b81526001600160a01b03851660048201526024810182905260448101839052606401610542565b6001600160a01b03841660009081526020819052604090209082900390555b6001600160a01b0382166115405760028054829003905561155f565b6001600160a01b03821660009081526020819052604090208054820190555b816001600160a01b0316836001600160a01b03167fddf252ad1be2c89b69c2b068fc378daa952ba7f163c4a11628f55a4df523b3ef836040516115a491815260200190565b60405180910390a3505050565b6001600160a01b0384166115db5760405163e602df0560e01b815260006004820152602401610542565b6001600160a01b03831661160557604051634a1406b160e11b815260006004820152602401610542565b6001600160a01b038085166000908152600160209081526040808320938716835292905220829055801561140257826001600160a01b0316846001600160a01b03167f8c5be1e5ebec7d5bd14f71427d1e84f3dd0314c0f7b2291e5b200ac8c7c3b9258460405161167891815260200190565b60405180910390a350505050565b60006020828403121561169857600080fd5b5035919050565b602081526000825180602084015260005b818110156116cd57602081860181015160408684010152016116b0565b506000604082850101526040601f19601f83011684010191505092915050565b80356001600160a01b038116811461170457600080fd5b919050565b6000806040838503121561171c57600080fd5b611725836116ed565b946020939093013593505050565b60008060006060848603121561174857600080fd5b611751846116ed565b925061175f602085016116ed565b929592945050506040919091013590565b60006020828403121561178257600080fd5b61178b826116ed565b9392505050565b600080604083850312156117a557600080fd5b6117ae836116ed565b91506117bc602084016116ed565b90509250929050565b6020808252601d908201527f416d6f756e74206d7573742062652067726561746572207468616e2030000000604082015260600190565b634e487b7160e01b600052601160045260246000fd5b6001815b600184111561184d57808504811115611831576118316117fc565b600184161561183f57908102905b60019390931c928002611816565b935093915050565b6000826118645750600161092e565b816118715750600061092e565b81600181146118875760028114611891576118ad565b600191505061092e565b60ff8411156118a2576118a26117fc565b50506001821b61092e565b5060208310610133831016604e8410600b84101617156118d0575081810a61092e565b6118dd6000198484611812565b80600019048211156118f1576118f16117fc565b029392505050565b600061178b60ff841683611855565b808202811582820484141761092e5761092e6117fc565b60006020828403121561193157600080fd5b5051919050565b60006020828403121561194a57600080fd5b8151801515811461178b57600080fd5b600181811c9082168061196e57607f821691505b60208210810361198e57634e487b7160e01b600052602260045260246000fd5b50919050565b8181038181111561092e5761092e6117fc565b6000826119c457634e487b7160e01b600052601260045260246000fd5b500490565b8082018082111561092e5761092e6117fc565b805169ffffffffffffffffffff8116811461170457600080fd5b600080600080600060a08688031215611a0e57600080fd5b611a17866119dc565b60208701516040880151606089015192975090955093509150611a3c608087016119dc565b9050929550929590935056fea26469706673582212207f57be76b0a832b14954a7f0e0aa565fd0db57e766c6386d8b8f41c97e8269a764736f6c634300081c0033",
  "linkReferences": {},
  "deployedLinkReferences": {}
}