{
  "_format": "hh-sol-artifact-1",
  "contractName": "FarmToken",
  "sourceName": "contracts/FarmToken.sol",
  "abi": [
    {
      "inputs": [
        {
          "internalType": "string",
          "name": "name",
          "type": "string"
        },
        {
          "internalType": "string",
          "name": "symbol",
          "type": "string"
        },
        {
          "internalType": "uint256",
          "name": "_totalSupply",
          "type": "uint256"
        },
        {
          "internalType": "uint256",
          "name": "_farmId",
          "type": "uint256"
        },
        {
          "internalType": "address",
          "name": "_farmFactory",
          "type": "address"
        },
        {
          "internalType": "uint256",
          "name": "_pricePerToken",
          "type": "uint256"
        }
      ],
      "stateMutability": "nonpayable",
      "type": "constructor"
    },
    {
      "inputs": [
        {
          "internalType": "address",
          "name": "spender",
          "type": "address"
        },
        {
          "internalType": "uint256",
          "name": "allowance",
          "type": "uint256"
        },
        {
          "internalType": "uint256",
          "name": "needed",
          "type": "uint256"
        }
      ],
      "name": "ERC20InsufficientAllowance",
      "type": "error"
    },
    {
      "inputs": [
        {
          "internalType": "address",
          "name": "sender",
          "type": "address"
        },
        {
          "internalType": "uint256",
          "name": "balance",
          "type": "uint256"
        },
        {
          "internalType": "uint256",
          "name": "needed",
          "type": "uint256"
        }
      ],
      "name": "ERC20InsufficientBalance",
      "type": "error"
    },
    {
      "inputs": [
        {
          "internalType": "address",
          "name": "approver",
          "type": "address"
        }
      ],
      "name": "ERC20InvalidApprover",
      "type": "error"
    },
    {
      "inputs": [
        {
          "internalType": "address",
          "name": "receiver",
          "type": "address"
        }
      ],
      "name": "ERC20InvalidReceiver",
      "type": "error"
    },
    {
      "inputs": [
        {
          "internalType": "address",
          "name": "sender",
          "type": "address"
        }
      ],
      "name": "ERC20InvalidSender",
      "type": "error"
    },
    {
      "inputs": [
        {
          "internalType": "address",
          "name": "spender",
          "type": "address"
        }
      ],
      "name": "ERC20InvalidSpender",
      "type": "error"
    },
    {
      "inputs": [
        {
          "internalType": "address",
          "name": "owner",
          "type": "address"
        }
      ],
      "name": "OwnableInvalidOwner",
      "type": "error"
    },
    {
      "inputs": [
        {
          "internalType": "address",
          "name": "account",
          "type": "address"
        }
      ],
      "name": "OwnableUnauthorizedAccount",
      "type": "error"
    },
    {
      "anonymous": false,
      "inputs": [
        {
          "indexed": true,
          "internalType": "address",
          "name": "owner",
          "type": "address"
        },
        {
          "indexed": true,
          "internalType": "address",
          "name": "spender",
          "type": "address"
        },
        {
          "indexed": false,
          "internalType": "uint256",
          "name": "value",
          "type": "uint256"
        }
      ],
      "name": "Approval",
      "type": "event"
    },
    {
      "anonymous": false,
      "inputs": [
        {
          "indexed": true,
          "internalType": "address",
          "name": "owner",
          "type": "address"
        },
        {
          "indexed": false,
          "internalType": "uint256",
          "name": "amount",
          "type": "uint256"
        }
      ],
      "name": "FundsWithdrawn",
      "type": "event"
    },
    {
      "anonymous": false,
      "inputs": [
        {
          "indexed": true,
          "internalType": "address",
          "name": "previousOwner",
          "type": "address"
        },
        {
          "indexed": true,
          "internalType": "address",
          "name": "newOwner",
          "type": "address"
        }
      ],
      "name": "OwnershipTransferred",
      "type": "event"
    },
    {
      "anonymous": false,
      "inputs": [
        {
          "indexed": false,
          "internalType": "uint256",
          "name": "oldPrice",
          "type": "uint256"
        },
        {
          "indexed": false,
          "internalType": "uint256",
          "name": "newPrice",
          "type": "uint256"
        }
      ],
      "name": "PriceUpdated",
      "type": "event"
    },
    {
      "anonymous": false,
      "inputs": [
        {
          "indexed": true,
          "internalType": "address",
          "name": "buyer",
          "type": "address"
        },
        {
          "indexed": false,
          "internalType": "uint256",
          "name": "amount",
          "type": "uint256"
        },
        {
          "indexed": false,
          "internalType": "uint256",
          "name": "cost",
          "type": "uint256"
        }
      ],
      "name": "TokensPurchased",
      "type": "event"
    },
    {
      "anonymous": false,
      "inputs": [
        {
          "indexed": true,
          "internalType": "address",
          "name": "from",
          "type": "address"
        },
        {
          "indexed": true,
          "internalType": "address",
          "name": "to",
          "type": "address"
        },
        {
          "indexed": false,
          "internalType": "uint256",
          "name": "value",
          "type": "uint256"
        }
      ],
      "name": "Transfer",
      "type": "event"
    },
    {
      "inputs": [
        {
          "internalType": "address",
          "name": "owner",
          "type": "address"
        },
        {
          "internalType": "address",
          "name": "spender",
          "type": "address"
        }
      ],
      "name": "allowance",
      "outputs": [
        {
          "internalType": "uint256",
          "name": "",
          "type": "uint256"
        }
      ],
      "stateMutability": "view",
      "type": "function"
    },
    {
      "inputs": [
        {
          "internalType": "address",
          "name": "spender",
          "type": "address"
        },
        {
          "internalType": "uint256",
          "name": "value",
          "type": "uint256"
        }
      ],
      "name": "approve",
      "outputs": [
        {
          "internalType": "bool",
          "name": "",
          "type": "bool"
        }
      ],
      "stateMutability": "nonpayable",
      "type": "function"
    },
    {
      "inputs": [
        {
          "internalType": "address",
          "name": "account",
          "type": "address"
        }
      ],
      "name": "balanceOf",
      "outputs": [
        {
          "internalType": "uint256",
          "name": "",
          "type": "uint256"
        }
      ],
      "stateMutability": "view",
      "type": "function"
    },
    {
      "inputs": [
        {
          "internalType": "uint256",
          "name": "amount",
          "type": "uint256"
        }
      ],
      "name": "buyTokens",
      "outputs": [],
      "stateMutability": "payable",
      "type": "function"
    },
    {
      "inputs": [],
      "name": "decimals",
      "outputs": [
        {
          "internalType": "uint8",
          "name": "",
          "type": "uint8"
        }
      ],
      "stateMutability": "view",
      "type": "function"
    },
    {
      "inputs": [],
      "name": "farmFactory",
      "outputs": [
        {
          "internalType": "address",
          "name": "",
          "type": "address"
        }
      ],
      "stateMutability": "view",
      "type": "function"
    },
    {
      "inputs": [],
      "name": "farmId",
      "outputs": [
        {
          "internalType": "uint256",
          "name": "",
          "type": "uint256"
        }
      ],
      "stateMutability": "view",
      "type": "function"
    },
    {
      "inputs": [],
      "name": "name",
      "outputs": [
        {
          "internalType": "string",
          "name": "",
          "type": "string"
        }
      ],
      "stateMutability": "view",
      "type": "function"
    },
    {
      "inputs": [],
      "name": "owner",
      "outputs": [
        {
          "internalType": "address",
          "name": "",
          "type": "address"
        }
      ],
      "stateMutability": "view",
      "type": "function"
    },
    {
      "inputs": [],
      "name": "pricePerToken",
      "outputs": [
        {
          "internalType": "uint256",
          "name": "",
          "type": "uint256"
        }
      ],
      "stateMutability": "view",
      "type": "function"
    },
    {
      "inputs": [],
      "name": "renounceOwnership",
      "outputs": [],
      "stateMutability": "nonpayable",
      "type": "function"
    },
    {
      "inputs": [],
      "name": "symbol",
      "outputs": [
        {
          "internalType": "string",
          "name": "",
          "type": "string"
        }
      ],
      "stateMutability": "view",
      "type": "function"
    },
    {
      "inputs": [],
      "name": "totalSupply",
      "outputs": [
        {
          "internalType": "uint256",
          "name": "",
          "type": "uint256"
        }
      ],
      "stateMutability": "view",
      "type": "function"
    },
    {
      "inputs": [
        {
          "internalType": "address",
          "name": "to",
          "type": "address"
        },
        {
          "internalType": "uint256",
          "name": "value",
          "type": "uint256"
        }
      ],
      "name": "transfer",
      "outputs": [
        {
          "internalType": "bool",
          "name": "",
          "type": "bool"
        }
      ],
      "stateMutability": "nonpayable",
      "type": "function"
    },
    {
      "inputs": [
        {
          "internalType": "address",
          "name": "from",
          "type": "address"
        },
        {
          "internalType": "address",
          "name": "to",
          "type": "address"
        },
        {
          "internalType": "uint256",
          "name": "value",
          "type": "uint256"
        }
      ],
      "name": "transferFrom",
      "outputs": [
        {
          "internalType": "bool",
          "name": "",
          "type": "bool"
        }
      ],
      "stateMutability": "nonpayable",
      "type": "function"
    },
    {
      "inputs": [
        {
          "internalType": "address",
          "name": "newOwner",
          "type": "address"
        }
      ],
      "name": "transferOwnership",
      "outputs": [],
      "stateMutability": "nonpayable",
      "type": "function"
    },
    {
      "inputs": [
        {
          "internalType": "uint256",
          "name": "newPrice",
          "type": "uint256"
        }
      ],
      "name": "updatePrice",
      "outputs": [],
      "stateMutability": "nonpayable",
      "type": "function"
    },
    {
      "inputs": [],
      "name": "withdrawFunds",
      "outputs": [],
      "stateMutability": "nonpayable",
      "type": "function"
    }
  ],
  "bytecode": "0x608060405234801561001057600080fd5b5060405161137f38038061137f83398101604081905261002f91610330565b338686600361003e8382610464565b50600461004b8282610464565b5050506001600160a01b03811661007d57604051631e4fbdf760e01b8152600060048201526024015b60405180910390fd5b610086816100c1565b506006839055600780546001600160a01b0319166001600160a01b03841617905560088190556100b63385610113565b505050505050610549565b600580546001600160a01b038381166001600160a01b0319831681179093556040519116919082907f8be0079c531659141344cd1fd0a4f28419497f9722a3daafe3b4186f6b6457e090600090a35050565b6001600160a01b03821661013d5760405163ec442f0560e01b815260006004820152602401610074565b6101496000838361014d565b5050565b6001600160a01b03831661017857806002600082825461016d9190610522565b909155506101ea9050565b6001600160a01b038316600090815260208190526040902054818110156101cb5760405163391434e360e21b81526001600160a01b03851660048201526024810182905260448101839052606401610074565b6001600160a01b03841660009081526020819052604090209082900390555b6001600160a01b03821661020657600280548290039055610225565b6001600160a01b03821660009081526020819052604090208054820190555b816001600160a01b0316836001600160a01b03167fddf252ad1be2c89b69c2b068fc378daa952ba7f163c4a11628f55a4df523b3ef8360405161026a91815260200190565b60405180910390a3505050565b634e487b7160e01b600052604160045260246000fd5b600082601f83011261029e57600080fd5b81516001600160401b038111156102b7576102b7610277565b604051601f8201601f19908116603f011681016001600160401b03811182821017156102e5576102e5610277565b6040528181528382016020018510156102fd57600080fd5b60005b8281101561031c57602081860181015183830182015201610300565b506000918101602001919091529392505050565b60008060008060008060c0878903121561034957600080fd5b86516001600160401b0381111561035f57600080fd5b61036b89828a0161028d565b602089015190975090506001600160401b0381111561038957600080fd5b61039589828a0161028d565b604089015160608a015160808b0151929850909650945090506001600160a01b03811681146103c357600080fd5b60a09790970151959894975092959194919391925050565b600181811c908216806103ef57607f821691505b60208210810361040f57634e487b7160e01b600052602260045260246000fd5b50919050565b601f82111561045f57806000526020600020601f840160051c8101602085101561043c5750805b601f840160051c820191505b8181101561045c5760008155600101610448565b50505b505050565b81516001600160401b0381111561047d5761047d610277565b6104918161048b84546103db565b84610415565b6020601f8211600181146104c557600083156104ad5750848201515b600019600385901b1c1916600184901b17845561045c565b600084815260208120601f198516915b828110156104f557878501518255602094850194600190920191016104d5565b50848210156105135786840151600019600387901b60f8161c191681555b50505050600190811b01905550565b8082018082111561054357634e487b7160e01b600052601160045260246000fd5b92915050565b610e27806105586000396000f3fe6080604052600436106101095760003560e01c806370a08231116100955780638da5cb5b116100645780638da5cb5b146102bd57806395d89b41146102db578063a9059cbb146102f0578063dd62ed3e14610310578063f2fde38b1461035657600080fd5b806370a082311461023c578063715018a6146102725780637b1b1de6146102875780638d6cc56d1461029d57600080fd5b806324600fc3116100dc57806324600fc3146101a8578063278de000146101bf578063313ce567146101d55780633610724e146101f15780636d25e1751461020457600080fd5b806306fdde031461010e578063095ea7b31461013957806318160ddd1461016957806323b872dd14610188575b600080fd5b34801561011a57600080fd5b50610123610376565b6040516101309190610c25565b60405180910390f35b34801561014557600080fd5b50610159610154366004610c8f565b610408565b6040519015158152602001610130565b34801561017557600080fd5b506002545b604051908152602001610130565b34801561019457600080fd5b506101596101a3366004610cb9565b610422565b3480156101b457600080fd5b506101bd610446565b005b3480156101cb57600080fd5b5061017a60065481565b3480156101e157600080fd5b5060405160128152602001610130565b6101bd6101ff366004610cf6565b61059e565b34801561021057600080fd5b50600754610224906001600160a01b031681565b6040516001600160a01b039091168152602001610130565b34801561024857600080fd5b5061017a610257366004610d0f565b6001600160a01b031660009081526020819052604090205490565b34801561027e57600080fd5b506101bd6107b5565b34801561029357600080fd5b5061017a60085481565b3480156102a957600080fd5b506101bd6102b8366004610cf6565b6107c9565b3480156102c957600080fd5b506005546001600160a01b0316610224565b3480156102e757600080fd5b50610123610868565b3480156102fc57600080fd5b5061015961030b366004610c8f565b610877565b34801561031c57600080fd5b5061017a61032b366004610d31565b6001600160a01b03918216600090815260016020908152604080832093909416825291909152205490565b34801561036257600080fd5b506101bd610371366004610d0f565b610885565b60606003805461038590610d64565b80601f01602080910402602001604051908101604052809291908181526020018280546103b190610d64565b80156103fe5780601f106103d3576101008083540402835291602001916103fe565b820191906000526020600020905b8154815290600101906020018083116103e157829003601f168201915b5050505050905090565b6000336104168185856108c3565b60019150505b92915050565b6000336104308582856108d0565b61043b858585610948565b506001949350505050565b61044e6109a7565b47806104985760405162461bcd60e51b81526020600482015260146024820152734e6f2066756e647320746f20776974686472617760601b60448201526064015b60405180910390fd5b60006104ac6005546001600160a01b031690565b6001600160a01b03168260405160006040518083038185875af1925050503d80600081146104f6576040519150601f19603f3d011682016040523d82523d6000602084013e6104fb565b606091505b505090508061054c5760405162461bcd60e51b815260206004820152601860248201527f4661696c656420746f2077697468647261772066756e64730000000000000000604482015260640161048f565b6005546001600160a01b03166001600160a01b03167feaff4b37086828766ad3268786972c0cd24259d4c87a80f9d3963a3c3d999b0d8360405161059291815260200190565b60405180910390a25050565b600081116105ee5760405162461bcd60e51b815260206004820152601d60248201527f416d6f756e74206d7573742062652067726561746572207468616e2030000000604482015260640161048f565b6000600854826105fe9190610db4565b9050803410156106475760405162461bcd60e51b8152602060048201526014602482015273125b9cdd59999a58da595b9d081c185e5b595b9d60621b604482015260640161048f565b8161065d6102576005546001600160a01b031690565b10156106ab5760405162461bcd60e51b815260206004820152601d60248201527f496e73756666696369656e7420746f6b656e7320617661696c61626c65000000604482015260640161048f565b6106c76106c06005546001600160a01b031690565b3384610948565b604080518381526020810183905233917f8fafebcaf9d154343dad25669bfa277f4fbacd7ac6b0c4fed522580e040a0f33910160405180910390a2600061070e8234610dcb565b905080156107b057604051600090339083908381818185875af1925050503d8060008114610758576040519150601f19603f3d011682016040523d82523d6000602084013e61075d565b606091505b50509050806107ae5760405162461bcd60e51b815260206004820152601f60248201527f4661696c656420746f2072657475726e20657863657373207061796d656e7400604482015260640161048f565b505b505050565b6107bd6109a7565b6107c760006109d4565b565b6007546001600160a01b031633146108235760405162461bcd60e51b815260206004820152601e60248201527f43616c6c6572206973206e6f7420746865206661726d20666163746f72790000604482015260640161048f565b600880549082905560408051828152602081018490527f945c1c4e99aa89f648fbfe3df471b916f719e16d960fcec0737d4d56bd696838910160405180910390a15050565b60606004805461038590610d64565b600033610416818585610948565b61088d6109a7565b6001600160a01b0381166108b757604051631e4fbdf760e01b81526000600482015260240161048f565b6108c0816109d4565b50565b6107b08383836001610a26565b6001600160a01b0383811660009081526001602090815260408083209386168352929052205460001981146107ae578181101561093957604051637dc7a0d960e11b81526001600160a01b0384166004820152602481018290526044810183905260640161048f565b6107ae84848484036000610a26565b6001600160a01b03831661097257604051634b637e8f60e11b81526000600482015260240161048f565b6001600160a01b03821661099c5760405163ec442f0560e01b81526000600482015260240161048f565b6107b0838383610afb565b6005546001600160a01b031633146107c75760405163118cdaa760e01b815233600482015260240161048f565b600580546001600160a01b038381166001600160a01b0319831681179093556040519116919082907f8be0079c531659141344cd1fd0a4f28419497f9722a3daafe3b4186f6b6457e090600090a35050565b6001600160a01b038416610a505760405163e602df0560e01b81526000600482015260240161048f565b6001600160a01b038316610a7a57604051634a1406b160e11b81526000600482015260240161048f565b6001600160a01b03808516600090815260016020908152604080832093871683529290522082905580156107ae57826001600160a01b0316846001600160a01b03167f8c5be1e5ebec7d5bd14f71427d1e84f3dd0314c0f7b2291e5b200ac8c7c3b92584604051610aed91815260200190565b60405180910390a350505050565b6001600160a01b038316610b26578060026000828254610b1b9190610dde565b90915550610b989050565b6001600160a01b03831660009081526020819052604090205481811015610b795760405163391434e360e21b81526001600160a01b0385166004820152602481018290526044810183905260640161048f565b6001600160a01b03841660009081526020819052604090209082900390555b6001600160a01b038216610bb457600280548290039055610bd3565b6001600160a01b03821660009081526020819052604090208054820190555b816001600160a01b0316836001600160a01b03167fddf252ad1be2c89b69c2b068fc378daa952ba7f163c4a11628f55a4df523b3ef83604051610c1891815260200190565b60405180910390a3505050565b602081526000825180602084015260005b81811015610c535760208186018101516040868401015201610c36565b506000604082850101526040601f19601f83011684010191505092915050565b80356001600160a01b0381168114610c8a57600080fd5b919050565b60008060408385031215610ca257600080fd5b610cab83610c73565b946020939093013593505050565b600080600060608486031215610cce57600080fd5b610cd784610c73565b9250610ce560208501610c73565b929592945050506040919091013590565b600060208284031215610d0857600080fd5b5035919050565b600060208284031215610d2157600080fd5b610d2a82610c73565b9392505050565b60008060408385031215610d4457600080fd5b610d4d83610c73565b9150610d5b60208401610c73565b90509250929050565b600181811c90821680610d7857607f821691505b602082108103610d9857634e487b7160e01b600052602260045260246000fd5b50919050565b634e487b7160e01b600052601160045260246000fd5b808202811582820484141761041c5761041c610d9e565b8181038181111561041c5761041c610d9e565b8082018082111561041c5761041c610d9e56fea264697066735822122097b388363bd48639b7ee8ab3cba578d9f4d91c21bc153e4117dd566f65b21a7c64736f6c634300081c0033",
  "linkReferences": {},
  "deployedLinkReferences": {}
}