{
  "_format": "hh-sol-artifact-1",
  "contractName": "FarmToken",
  "sourceName": "contracts/FarmToken.sol",
  "abi": [
    {
      "inputs": [
        {
          "internalType": "string",
          "name": "name",
          "type": "string"
        },
        {
          "internalType": "string",
          "name": "symbol",
          "type": "string"
        },
        {
          "internalType": "uint256",
          "name": "_totalSupply",
          "type": "uint256"
        },
        {
          "internalType": "uint256",
          "name": "_farmId",
          "type": "uint256"
        },
        {
          "internalType": "address",
          "name": "_farmFactory",
          "type": "address"
        },
        {
          "internalType": "uint256",
          "name": "_pricePerToken",
          "type": "uint256"
        }
      ],
      "stateMutability": "nonpayable",
      "type": "constructor"
    },
    {
      "inputs": [
        {
          "internalType": "address",
          "name": "spender",
          "type": "address"
        },
        {
          "internalType": "uint256",
          "name": "allowance",
          "type": "uint256"
        },
        {
          "internalType": "uint256",
          "name": "needed",
          "type": "uint256"
        }
      ],
      "name": "ERC20InsufficientAllowance",
      "type": "error"
    },
    {
      "inputs": [
        {
          "internalType": "address",
          "name": "sender",
          "type": "address"
        },
        {
          "internalType": "uint256",
          "name": "balance",
          "type": "uint256"
        },
        {
          "internalType": "uint256",
          "name": "needed",
          "type": "uint256"
        }
      ],
      "name": "ERC20InsufficientBalance",
      "type": "error"
    },
    {
      "inputs": [
        {
          "internalType": "address",
          "name": "approver",
          "type": "address"
        }
      ],
      "name": "ERC20InvalidApprover",
      "type": "error"
    },
    {
      "inputs": [
        {
          "internalType": "address",
          "name": "receiver",
          "type": "address"
        }
      ],
      "name": "ERC20InvalidReceiver",
      "type": "error"
    },
    {
      "inputs": [
        {
          "internalType": "address",
          "name": "sender",
          "type": "address"
        }
      ],
      "name": "ERC20InvalidSender",
      "type": "error"
    },
    {
      "inputs": [
        {
          "internalType": "address",
          "name": "spender",
          "type": "address"
        }
      ],
      "name": "ERC20InvalidSpender",
      "type": "error"
    },
    {
      "inputs": [
        {
          "internalType": "address",
          "name": "owner",
          "type": "address"
        }
      ],
      "name": "OwnableInvalidOwner",
      "type": "error"
    },
    {
      "inputs": [
        {
          "internalType": "address",
          "name": "account",
          "type": "address"
        }
      ],
      "name": "OwnableUnauthorizedAccount",
      "type": "error"
    },
    {
      "anonymous": false,
      "inputs": [
        {
          "indexed": true,
          "internalType": "address",
          "name": "owner",
          "type": "address"
        },
        {
          "indexed": true,
          "internalType": "address",
          "name": "spender",
          "type": "address"
        },
        {
          "indexed": false,
          "internalType": "uint256",
          "name": "value",
          "type": "uint256"
        }
      ],
      "name": "Approval",
      "type": "event"
    },
    {
      "anonymous": false,
      "inputs": [
        {
          "indexed": true,
          "internalType": "address",
          "name": "owner",
          "type": "address"
        },
        {
          "indexed": false,
          "internalType": "uint256",
          "name": "amount",
          "type": "uint256"
        }
      ],
      "name": "FundsWithdrawn",
      "type": "event"
    },
    {
      "anonymous": false,
      "inputs": [
        {
          "indexed": true,
          "internalType": "address",
          "name": "previousOwner",
          "type": "address"
        },
        {
          "indexed": true,
          "internalType": "address",
          "name": "newOwner",
          "type": "address"
        }
      ],
      "name": "OwnershipTransferred",
      "type": "event"
    },
    {
      "anonymous": false,
      "inputs": [
        {
          "indexed": false,
          "internalType": "uint256",
          "name": "oldPrice",
          "type": "uint256"
        },
        {
          "indexed": false,
          "internalType": "uint256",
          "name": "newPrice",
          "type": "uint256"
        }
      ],
      "name": "PriceUpdated",
      "type": "event"
    },
    {
      "anonymous": false,
      "inputs": [
        {
          "indexed": true,
          "internalType": "address",
          "name": "buyer",
          "type": "address"
        },
        {
          "indexed": false,
          "internalType": "uint256",
          "name": "amount",
          "type": "uint256"
        },
        {
          "indexed": false,
          "internalType": "uint256",
          "name": "costInWei",
          "type": "uint256"
        },
        {
          "indexed": false,
          "internalType": "uint256",
          "name": "costInUsd",
          "type": "uint256"
        }
      ],
      "name": "TokensPurchased",
      "type": "event"
    },
    {
      "anonymous": false,
      "inputs": [
        {
          "indexed": true,
          "internalType": "address",
          "name": "seller",
          "type": "address"
        },
        {
          "indexed": false,
          "internalType": "uint256",
          "name": "amount",
          "type": "uint256"
        },
        {
          "indexed": false,
          "internalType": "uint256",
          "name": "costInWei",
          "type": "uint256"
        },
        {
          "indexed": false,
          "internalType": "uint256",
          "name": "costInUsd",
          "type": "uint256"
        }
      ],
      "name": "TokensSold",
      "type": "event"
    },
    {
      "anonymous": false,
      "inputs": [
        {
          "indexed": true,
          "internalType": "address",
          "name": "from",
          "type": "address"
        },
        {
          "indexed": true,
          "internalType": "address",
          "name": "to",
          "type": "address"
        },
        {
          "indexed": false,
          "internalType": "uint256",
          "name": "value",
          "type": "uint256"
        }
      ],
      "name": "Transfer",
      "type": "event"
    },
    {
      "inputs": [],
      "name": "ETH_USD_PRICE_FEED",
      "outputs": [
        {
          "internalType": "address",
          "name": "",
          "type": "address"
        }
      ],
      "stateMutability": "view",
      "type": "function"
    },
    {
      "inputs": [],
      "name": "PRICE_SAFETY_MARGIN",
      "outputs": [
        {
          "internalType": "uint256",
          "name": "",
          "type": "uint256"
        }
      ],
      "stateMutability": "view",
      "type": "function"
    },
    {
      "inputs": [],
      "name": "PRICE_VALIDITY_DURATION",
      "outputs": [
        {
          "internalType": "uint256",
          "name": "",
          "type": "uint256"
        }
      ],
      "stateMutability": "view",
      "type": "function"
    },
    {
      "inputs": [
        {
          "internalType": "address",
          "name": "owner",
          "type": "address"
        },
        {
          "internalType": "address",
          "name": "spender",
          "type": "address"
        }
      ],
      "name": "allowance",
      "outputs": [
        {
          "internalType": "uint256",
          "name": "",
          "type": "uint256"
        }
      ],
      "stateMutability": "view",
      "type": "function"
    },
    {
      "inputs": [
        {
          "internalType": "address",
          "name": "spender",
          "type": "address"
        },
        {
          "internalType": "uint256",
          "name": "value",
          "type": "uint256"
        }
      ],
      "name": "approve",
      "outputs": [
        {
          "internalType": "bool",
          "name": "",
          "type": "bool"
        }
      ],
      "stateMutability": "nonpayable",
      "type": "function"
    },
    {
      "inputs": [
        {
          "internalType": "address",
          "name": "account",
          "type": "address"
        }
      ],
      "name": "balanceOf",
      "outputs": [
        {
          "internalType": "uint256",
          "name": "",
          "type": "uint256"
        }
      ],
      "stateMutability": "view",
      "type": "function"
    },
    {
      "inputs": [
        {
          "internalType": "uint256",
          "name": "amount",
          "type": "uint256"
        }
      ],
      "name": "buyTokens",
      "outputs": [],
      "stateMutability": "payable",
      "type": "function"
    },
    {
      "inputs": [
        {
          "internalType": "uint256",
          "name": "usdCents",
          "type": "uint256"
        }
      ],
      "name": "calculateETHAmount",
      "outputs": [
        {
          "internalType": "uint256",
          "name": "",
          "type": "uint256"
        }
      ],
      "stateMutability": "view",
      "type": "function"
    },
    {
      "inputs": [],
      "name": "decimals",
      "outputs": [
        {
          "internalType": "uint8",
          "name": "",
          "type": "uint8"
        }
      ],
      "stateMutability": "view",
      "type": "function"
    },
    {
      "inputs": [],
      "name": "farmFactory",
      "outputs": [
        {
          "internalType": "address",
          "name": "",
          "type": "address"
        }
      ],
      "stateMutability": "view",
      "type": "function"
    },
    {
      "inputs": [],
      "name": "farmId",
      "outputs": [
        {
          "internalType": "uint256",
          "name": "",
          "type": "uint256"
        }
      ],
      "stateMutability": "view",
      "type": "function"
    },
    {
      "inputs": [],
      "name": "getLatestETHPrice",
      "outputs": [
        {
          "internalType": "uint256",
          "name": "",
          "type": "uint256"
        },
        {
          "internalType": "uint256",
          "name": "",
          "type": "uint256"
        }
      ],
      "stateMutability": "view",
      "type": "function"
    },
    {
      "inputs": [],
      "name": "name",
      "outputs": [
        {
          "internalType": "string",
          "name": "",
          "type": "string"
        }
      ],
      "stateMutability": "view",
      "type": "function"
    },
    {
      "inputs": [],
      "name": "owner",
      "outputs": [
        {
          "internalType": "address",
          "name": "",
          "type": "address"
        }
      ],
      "stateMutability": "view",
      "type": "function"
    },
    {
      "inputs": [],
      "name": "pricePerToken",
      "outputs": [
        {
          "internalType": "uint256",
          "name": "",
          "type": "uint256"
        }
      ],
      "stateMutability": "view",
      "type": "function"
    },
    {
      "inputs": [],
      "name": "renounceOwnership",
      "outputs": [],
      "stateMutability": "nonpayable",
      "type": "function"
    },
    {
      "inputs": [
        {
          "internalType": "uint256",
          "name": "amount",
          "type": "uint256"
        }
      ],
      "name": "sellTokens",
      "outputs": [],
      "stateMutability": "nonpayable",
      "type": "function"
    },
    {
      "inputs": [],
      "name": "symbol",
      "outputs": [
        {
          "internalType": "string",
          "name": "",
          "type": "string"
        }
      ],
      "stateMutability": "view",
      "type": "function"
    },
    {
      "inputs": [],
      "name": "totalSupply",
      "outputs": [
        {
          "internalType": "uint256",
          "name": "",
          "type": "uint256"
        }
      ],
      "stateMutability": "view",
      "type": "function"
    },
    {
      "inputs": [
        {
          "internalType": "address",
          "name": "to",
          "type": "address"
        },
        {
          "internalType": "uint256",
          "name": "value",
          "type": "uint256"
        }
      ],
      "name": "transfer",
      "outputs": [
        {
          "internalType": "bool",
          "name": "",
          "type": "bool"
        }
      ],
      "stateMutability": "nonpayable",
      "type": "function"
    },
    {
      "inputs": [
        {
          "internalType": "address",
          "name": "from",
          "type": "address"
        },
        {
          "internalType": "address",
          "name": "to",
          "type": "address"
        },
        {
          "internalType": "uint256",
          "name": "value",
          "type": "uint256"
        }
      ],
      "name": "transferFrom",
      "outputs": [
        {
          "internalType": "bool",
          "name": "",
          "type": "bool"
        }
      ],
      "stateMutability": "nonpayable",
      "type": "function"
    },
    {
      "inputs": [
        {
          "internalType": "address",
          "name": "newOwner",
          "type": "address"
        }
      ],
      "name": "transferOwnership",
      "outputs": [],
      "stateMutability": "nonpayable",
      "type": "function"
    },
    {
      "inputs": [
        {
          "internalType": "uint256",
          "name": "newPrice",
          "type": "uint256"
        }
      ],
      "name": "updatePrice",
      "outputs": [],
      "stateMutability": "nonpayable",
      "type": "function"
    },
    {
      "inputs": [],
      "name": "withdrawFunds",
      "outputs": [],
      "stateMutability": "nonpayable",
      "type": "function"
    }
  ],
  "bytecode": "0x608060405234801561001057600080fd5b50604051611b53380380611b5383398101604081905261002f9161034c565b338686600361003e8382610480565b50600461004b8282610480565b5050506001600160a01b03811661007d57604051631e4fbdf760e01b8152600060048201526024015b60405180910390fd5b610086816100dd565b506006839055600780546001600160a01b0319166001600160a01b03841617905560088190556100d2336100b8601290565b6100c390600a61063d565b6100cd9087610653565b61012f565b50505050505061067d565b600580546001600160a01b038381166001600160a01b0319831681179093556040519116919082907f8be0079c531659141344cd1fd0a4f28419497f9722a3daafe3b4186f6b6457e090600090a35050565b6001600160a01b0382166101595760405163ec442f0560e01b815260006004820152602401610074565b61016560008383610169565b5050565b6001600160a01b038316610194578060026000828254610189919061066a565b909155506102069050565b6001600160a01b038316600090815260208190526040902054818110156101e75760405163391434e360e21b81526001600160a01b03851660048201526024810182905260448101839052606401610074565b6001600160a01b03841660009081526020819052604090209082900390555b6001600160a01b03821661022257600280548290039055610241565b6001600160a01b03821660009081526020819052604090208054820190555b816001600160a01b0316836001600160a01b03167fddf252ad1be2c89b69c2b068fc378daa952ba7f163c4a11628f55a4df523b3ef8360405161028691815260200190565b60405180910390a3505050565b634e487b7160e01b600052604160045260246000fd5b600082601f8301126102ba57600080fd5b81516001600160401b038111156102d3576102d3610293565b604051601f8201601f19908116603f011681016001600160401b038111828210171561030157610301610293565b60405281815283820160200185101561031957600080fd5b60005b828110156103385760208186018101518383018201520161031c565b506000918101602001919091529392505050565b60008060008060008060c0878903121561036557600080fd5b86516001600160401b0381111561037b57600080fd5b61038789828a016102a9565b602089015190975090506001600160401b038111156103a557600080fd5b6103b189828a016102a9565b604089015160608a015160808b0151929850909650945090506001600160a01b03811681146103df57600080fd5b60a09790970151959894975092959194919391925050565b600181811c9082168061040b57607f821691505b60208210810361042b57634e487b7160e01b600052602260045260246000fd5b50919050565b601f82111561047b57806000526020600020601f840160051c810160208510156104585750805b601f840160051c820191505b818110156104785760008155600101610464565b50505b505050565b81516001600160401b0381111561049957610499610293565b6104ad816104a784546103f7565b84610431565b6020601f8211600181146104e157600083156104c95750848201515b600019600385901b1c1916600184901b178455610478565b600084815260208120601f198516915b8281101561051157878501518255602094850194600190920191016104f1565b508482101561052f5786840151600019600387901b60f8161c191681555b50505050600190811b01905550565b634e487b7160e01b600052601160045260246000fd5b6001815b600184111561058f578085048111156105735761057361053e565b600184161561058157908102905b60019390931c928002610558565b935093915050565b6000826105a657506001610637565b816105b357506000610637565b81600181146105c957600281146105d3576105ef565b6001915050610637565b60ff8411156105e4576105e461053e565b50506001821b610637565b5060208310610133831016604e8410600b8410161715610612575081810a610637565b61061f6000198484610554565b80600019048211156106335761063361053e565b0290505b92915050565b600061064c60ff841683610597565b9392505050565b80820281158282048414176106375761063761053e565b808201808211156106375761063761053e565b6114c78061068c6000396000f3fe60806040526004361061014b5760003560e01c806370a08231116100b657806395d89b411161006f57806395d89b411461039c578063a9059cbb146103b1578063b0f0abe9146103d1578063c6f84854146103f9578063dd62ed3e1461040f578063f2fde38b1461045557600080fd5b806370a08231146102d3578063715018a614610309578063777e0d861461031e5780637b1b1de6146103485780638d6cc56d1461035e5780638da5cb5b1461037e57600080fd5b8063313ce56711610108578063313ce567146102175780633610724e1461023357806340fbc166146102465780636c11bcd3146102665780636d25e1751461028657806370147d67146102be57600080fd5b806306fdde0314610150578063095ea7b31461017b57806318160ddd146101ab57806323b872dd146101ca57806324600fc3146101ea578063278de00014610201575b600080fd5b34801561015c57600080fd5b50610165610475565b6040516101729190611141565b60405180910390f35b34801561018757600080fd5b5061019b6101963660046111ab565b610507565b6040519015158152602001610172565b3480156101b757600080fd5b506002545b604051908152602001610172565b3480156101d657600080fd5b5061019b6101e53660046111d5565b610521565b3480156101f657600080fd5b506101ff610545565b005b34801561020d57600080fd5b506101bc60065481565b34801561022357600080fd5b5060405160128152602001610172565b6101ff610241366004611212565b61069d565b34801561025257600080fd5b506101bc610261366004611212565b6108e5565b34801561027257600080fd5b506101ff610281366004611212565b61095c565b34801561029257600080fd5b506007546102a6906001600160a01b031681565b6040516001600160a01b039091168152602001610172565b3480156102ca57600080fd5b506101bc600581565b3480156102df57600080fd5b506101bc6102ee36600461122b565b6001600160a01b031660009081526020819052604090205490565b34801561031557600080fd5b506101ff610ba7565b34801561032a57600080fd5b50610333610bbb565b60408051928352602083019190915201610172565b34801561035457600080fd5b506101bc60085481565b34801561036a57600080fd5b506101ff610379366004611212565b610cd9565b34801561038a57600080fd5b506005546001600160a01b03166102a6565b3480156103a857600080fd5b50610165610d78565b3480156103bd57600080fd5b5061019b6103cc3660046111ab565b610d87565b3480156103dd57600080fd5b506102a6734adc67696ba383f43dd60a9e78f2c97fbbfc7cb181565b34801561040557600080fd5b506101bc610e1081565b34801561041b57600080fd5b506101bc61042a36600461124d565b6001600160a01b03918216600090815260016020908152604080832093909416825291909152205490565b34801561046157600080fd5b506101ff61047036600461122b565b610d95565b60606003805461048490611280565b80601f01602080910402602001604051908101604052809291908181526020018280546104b090611280565b80156104fd5780601f106104d2576101008083540402835291602001916104fd565b820191906000526020600020905b8154815290600101906020018083116104e057829003601f168201915b5050505050905090565b600033610515818585610dd3565b60019150505b92915050565b60003361052f858285610de5565b61053a858585610e64565b506001949350505050565b61054d610ec3565b47806105975760405162461bcd60e51b81526020600482015260146024820152734e6f2066756e647320746f20776974686472617760601b60448201526064015b60405180910390fd5b60006105ab6005546001600160a01b031690565b6001600160a01b03168260405160006040518083038185875af1925050503d80600081146105f5576040519150601f19603f3d011682016040523d82523d6000602084013e6105fa565b606091505b505090508061064b5760405162461bcd60e51b815260206004820152601860248201527f4661696c656420746f2077697468647261772066756e64730000000000000000604482015260640161058e565b6005546001600160a01b03166001600160a01b03167feaff4b37086828766ad3268786972c0cd24259d4c87a80f9d3963a3c3d999b0d8360405161069191815260200190565b60405180910390a25050565b600081116106ed5760405162461bcd60e51b815260206004820152601d60248201527f416d6f756e74206d7573742062652067726561746572207468616e2030000000604482015260640161058e565b60006106fb6012600a6113b7565b61070590836113c6565b905060006008548361071791906113c6565b90506000610724826108e5565b90508034101561076d5760405162461bcd60e51b8152602060048201526014602482015273125b9cdd59999a58da595b9d081c185e5b595b9d60621b604482015260640161058e565b826107836102ee6005546001600160a01b031690565b10156107d15760405162461bcd60e51b815260206004820152601d60248201527f496e73756666696369656e7420746f6b656e7320617661696c61626c65000000604482015260640161058e565b6107ed6107e66005546001600160a01b031690565b3385610e64565b604080518581526020810183905290810183905233907f0d1a0d5e3d583a0e92588799dd06e50fd78c07daf05f0cc06d7b848b1ca445f19060600160405180910390a2600061083c82346113dd565b905080156108de57604051600090339083908381818185875af1925050503d8060008114610886576040519150601f19603f3d011682016040523d82523d6000602084013e61088b565b606091505b50509050806108dc5760405162461bcd60e51b815260206004820152601f60248201527f4661696c656420746f2072657475726e20657863657373207061796d656e7400604482015260640161058e565b505b5050505050565b6000806108f0610bbb565b50905060006305f5e1006109058360646113c6565b61090f91906113f0565b905060006064610920600582611412565b61092a90846113c6565b61093491906113f0565b90508061094986670de0b6b3a76400006113c6565b61095391906113f0565b95945050505050565b600081116109ac5760405162461bcd60e51b815260206004820152601d60248201527f416d6f756e74206d7573742062652067726561746572207468616e2030000000604482015260640161058e565b6109b86012600a6113b7565b6109c290826113c6565b336000908152602081905260409020541015610a205760405162461bcd60e51b815260206004820152601a60248201527f496e73756666696369656e7420746f6b656e2062616c616e6365000000000000604482015260640161058e565b6000610a2e6012600a6113b7565b610a3890836113c6565b9050600060085483610a4a91906113c6565b90506000610a57826108e5565b905080471015610aa95760405162461bcd60e51b815260206004820152601d60248201527f496e73756666696369656e7420636f6e74726163742062616c616e6365000000604482015260640161058e565b610ac533610abf6005546001600160a01b031690565b85610e64565b604051600090339083908381818185875af1925050503d8060008114610b07576040519150601f19603f3d011682016040523d82523d6000602084013e610b0c565b606091505b5050905080610b5d5760405162461bcd60e51b815260206004820152601c60248201527f4661696c656420746f2073656e642045544820746f2073656c6c657200000000604482015260640161058e565b604080518681526020810184905290810184905233907f6db63bebf1e6540277744df32846ebdb98385b1a73f2d5de49b28348add63f509060600160405180910390a25050505050565b610baf610ec3565b610bb96000610ef0565b565b600080600080734adc67696ba383f43dd60a9e78f2c97fbbfc7cb16001600160a01b031663feaf968c6040518163ffffffff1660e01b815260040160a060405180830381865afa158015610c13573d6000803e3d6000fd5b505050506040513d601f19601f82011682018060405250810190610c37919061143f565b5093505092505060008213610c825760405162461bcd60e51b8152602060048201526011602482015270496e76616c69642045544820707269636560781b604482015260640161058e565b610e10610c8f82426113dd565b1115610cd05760405162461bcd60e51b815260206004820152601060248201526f5374616c65207072696365206461746160801b604482015260640161058e565b90939092509050565b6007546001600160a01b03163314610d335760405162461bcd60e51b815260206004820152601e60248201527f43616c6c6572206973206e6f7420746865206661726d20666163746f72790000604482015260640161058e565b600880549082905560408051828152602081018490527f945c1c4e99aa89f648fbfe3df471b916f719e16d960fcec0737d4d56bd696838910160405180910390a15050565b60606004805461048490611280565b600033610515818585610e64565b610d9d610ec3565b6001600160a01b038116610dc757604051631e4fbdf760e01b81526000600482015260240161058e565b610dd081610ef0565b50565b610de08383836001610f42565b505050565b6001600160a01b03838116600090815260016020908152604080832093861683529290522054600019811015610e5e5781811015610e4f57604051637dc7a0d960e11b81526001600160a01b0384166004820152602481018290526044810183905260640161058e565b610e5e84848484036000610f42565b50505050565b6001600160a01b038316610e8e57604051634b637e8f60e11b81526000600482015260240161058e565b6001600160a01b038216610eb85760405163ec442f0560e01b81526000600482015260240161058e565b610de0838383611017565b6005546001600160a01b03163314610bb95760405163118cdaa760e01b815233600482015260240161058e565b600580546001600160a01b038381166001600160a01b0319831681179093556040519116919082907f8be0079c531659141344cd1fd0a4f28419497f9722a3daafe3b4186f6b6457e090600090a35050565b6001600160a01b038416610f6c5760405163e602df0560e01b81526000600482015260240161058e565b6001600160a01b038316610f9657604051634a1406b160e11b81526000600482015260240161058e565b6001600160a01b0380851660009081526001602090815260408083209387168352929052208290558015610e5e57826001600160a01b0316846001600160a01b03167f8c5be1e5ebec7d5bd14f71427d1e84f3dd0314c0f7b2291e5b200ac8c7c3b9258460405161100991815260200190565b60405180910390a350505050565b6001600160a01b0383166110425780600260008282546110379190611412565b909155506110b49050565b6001600160a01b038316600090815260208190526040902054818110156110955760405163391434e360e21b81526001600160a01b0385166004820152602481018290526044810183905260640161058e565b6001600160a01b03841660009081526020819052604090209082900390555b6001600160a01b0382166110d0576002805482900390556110ef565b6001600160a01b03821660009081526020819052604090208054820190555b816001600160a01b0316836001600160a01b03167fddf252ad1be2c89b69c2b068fc378daa952ba7f163c4a11628f55a4df523b3ef8360405161113491815260200190565b60405180910390a3505050565b602081526000825180602084015260005b8181101561116f5760208186018101516040868401015201611152565b506000604082850101526040601f19601f83011684010191505092915050565b80356001600160a01b03811681146111a657600080fd5b919050565b600080604083850312156111be57600080fd5b6111c78361118f565b946020939093013593505050565b6000806000606084860312156111ea57600080fd5b6111f38461118f565b92506112016020850161118f565b929592945050506040919091013590565b60006020828403121561122457600080fd5b5035919050565b60006020828403121561123d57600080fd5b6112468261118f565b9392505050565b6000806040838503121561126057600080fd5b6112698361118f565b91506112776020840161118f565b90509250929050565b600181811c9082168061129457607f821691505b6020821081036112b457634e487b7160e01b600052602260045260246000fd5b50919050565b634e487b7160e01b600052601160045260246000fd5b6001815b600184111561130b578085048111156112ef576112ef6112ba565b60018416156112fd57908102905b60019390931c9280026112d4565b935093915050565b6000826113225750600161051b565b8161132f5750600061051b565b8160018114611345576002811461134f5761136b565b600191505061051b565b60ff841115611360576113606112ba565b50506001821b61051b565b5060208310610133831016604e8410600b841016171561138e575081810a61051b565b61139b60001984846112d0565b80600019048211156113af576113af6112ba565b029392505050565b600061124660ff841683611313565b808202811582820484141761051b5761051b6112ba565b8181038181111561051b5761051b6112ba565b60008261140d57634e487b7160e01b600052601260045260246000fd5b500490565b8082018082111561051b5761051b6112ba565b805169ffffffffffffffffffff811681146111a657600080fd5b600080600080600060a0868803121561145757600080fd5b61146086611425565b6020870151604088015160608901519297509095509350915061148560808701611425565b9050929550929590935056fea2646970667358221220d99f5896efaf4e28f6a6f6135e611d10bc9dd4cfd8f193b53dfc08aafa2932df64736f6c634300081c0033",
  "linkReferences": {},
  "deployedLinkReferences": {}
}