{
  "contractName": "FarmToken",
  "abi": [
    {
      "inputs": [
        {
          "internalType": "string",
          "name": "name",
          "type": "string"
        },
        {
          "internalType": "string",
          "name": "symbol",
          "type": "string"
        },
        {
          "internalType": "uint256",
          "name": "_totalSupply",
          "type": "uint256"
        },
        {
          "internalType": "uint256",
          "name": "_farmId",
          "type": "uint256"
        },
        {
          "internalType": "address",
          "name": "_farmFactory",
          "type": "address"
        },
        {
          "internalType": "uint256",
          "name": "_pricePerToken",
          "type": "uint256"
        }
      ],
      "stateMutability": "nonpayable",
      "type": "constructor"
    },
    {
      "inputs": [
        {
          "internalType": "address",
          "name": "spender",
          "type": "address"
        },
        {
          "internalType": "uint256",
          "name": "allowance",
          "type": "uint256"
        },
        {
          "internalType": "uint256",
          "name": "needed",
          "type": "uint256"
        }
      ],
      "name": "ERC20InsufficientAllowance",
      "type": "error"
    },
    {
      "inputs": [
        {
          "internalType": "address",
          "name": "sender",
          "type": "address"
        },
        {
          "internalType": "uint256",
          "name": "balance",
          "type": "uint256"
        },
        {
          "internalType": "uint256",
          "name": "needed",
          "type": "uint256"
        }
      ],
      "name": "ERC20InsufficientBalance",
      "type": "error"
    },
    {
      "inputs": [
        {
          "internalType": "address",
          "name": "approver",
          "type": "address"
        }
      ],
      "name": "ERC20InvalidApprover",
      "type": "error"
    },
    {
      "inputs": [
        {
          "internalType": "address",
          "name": "receiver",
          "type": "address"
        }
      ],
      "name": "ERC20InvalidReceiver",
      "type": "error"
    },
    {
      "inputs": [
        {
          "internalType": "address",
          "name": "sender",
          "type": "address"
        }
      ],
      "name": "ERC20InvalidSender",
      "type": "error"
    },
    {
      "inputs": [
        {
          "internalType": "address",
          "name": "spender",
          "type": "address"
        }
      ],
      "name": "ERC20InvalidSpender",
      "type": "error"
    },
    {
      "inputs": [
        {
          "internalType": "address",
          "name": "owner",
          "type": "address"
        }
      ],
      "name": "OwnableInvalidOwner",
      "type": "error"
    },
    {
      "inputs": [
        {
          "internalType": "address",
          "name": "account",
          "type": "address"
        }
      ],
      "name": "OwnableUnauthorizedAccount",
      "type": "error"
    },
    {
      "anonymous": false,
      "inputs": [
        {
          "indexed": true,
          "internalType": "address",
          "name": "owner",
          "type": "address"
        },
        {
          "indexed": true,
          "internalType": "address",
          "name": "spender",
          "type": "address"
        },
        {
          "indexed": false,
          "internalType": "uint256",
          "name": "value",
          "type": "uint256"
        }
      ],
      "name": "Approval",
      "type": "event"
    },
    {
      "anonymous": false,
      "inputs": [
        {
          "indexed": true,
          "internalType": "address",
          "name": "owner",
          "type": "address"
        },
        {
          "indexed": false,
          "internalType": "uint256",
          "name": "amount",
          "type": "uint256"
        }
      ],
      "name": "FundsWithdrawn",
      "type": "event"
    },
    {
      "anonymous": false,
      "inputs": [
        {
          "indexed": true,
          "internalType": "address",
          "name": "previousOwner",
          "type": "address"
        },
        {
          "indexed": true,
          "internalType": "address",
          "name": "newOwner",
          "type": "address"
        }
      ],
      "name": "OwnershipTransferred",
      "type": "event"
    },
    {
      "anonymous": false,
      "inputs": [
        {
          "indexed": false,
          "internalType": "uint256",
          "name": "oldPrice",
          "type": "uint256"
        },
        {
          "indexed": false,
          "internalType": "uint256",
          "name": "newPrice",
          "type": "uint256"
        }
      ],
      "name": "PriceUpdated",
      "type": "event"
    },
    {
      "anonymous": false,
      "inputs": [
        {
          "indexed": true,
          "internalType": "address",
          "name": "buyer",
          "type": "address"
        },
        {
          "indexed": false,
          "internalType": "uint256",
          "name": "amount",
          "type": "uint256"
        },
        {
          "indexed": false,
          "internalType": "uint256",
          "name": "cost",
          "type": "uint256"
        }
      ],
      "name": "TokensPurchased",
      "type": "event"
    },
    {
      "anonymous": false,
      "inputs": [
        {
          "indexed": true,
          "internalType": "address",
          "name": "from",
          "type": "address"
        },
        {
          "indexed": true,
          "internalType": "address",
          "name": "to",
          "type": "address"
        },
        {
          "indexed": false,
          "internalType": "uint256",
          "name": "value",
          "type": "uint256"
        }
      ],
      "name": "Transfer",
      "type": "event"
    },
    {
      "inputs": [
        {
          "internalType": "address",
          "name": "owner",
          "type": "address"
        },
        {
          "internalType": "address",
          "name": "spender",
          "type": "address"
        }
      ],
      "name": "allowance",
      "outputs": [
        {
          "internalType": "uint256",
          "name": "",
          "type": "uint256"
        }
      ],
      "stateMutability": "view",
      "type": "function"
    },
    {
      "inputs": [
        {
          "internalType": "address",
          "name": "spender",
          "type": "address"
        },
        {
          "internalType": "uint256",
          "name": "value",
          "type": "uint256"
        }
      ],
      "name": "approve",
      "outputs": [
        {
          "internalType": "bool",
          "name": "",
          "type": "bool"
        }
      ],
      "stateMutability": "nonpayable",
      "type": "function"
    },
    {
      "inputs": [
        {
          "internalType": "address",
          "name": "account",
          "type": "address"
        }
      ],
      "name": "balanceOf",
      "outputs": [
        {
          "internalType": "uint256",
          "name": "",
          "type": "uint256"
        }
      ],
      "stateMutability": "view",
      "type": "function"
    },
    {
      "inputs": [],
      "name": "decimals",
      "outputs": [
        {
          "internalType": "uint8",
          "name": "",
          "type": "uint8"
        }
      ],
      "stateMutability": "view",
      "type": "function"
    },
    {
      "inputs": [],
      "name": "farmFactory",
      "outputs": [
        {
          "internalType": "address",
          "name": "",
          "type": "address"
        }
      ],
      "stateMutability": "view",
      "type": "function"
    },
    {
      "inputs": [],
      "name": "farmId",
      "outputs": [
        {
          "internalType": "uint256",
          "name": "",
          "type": "uint256"
        }
      ],
      "stateMutability": "view",
      "type": "function"
    },
    {
      "inputs": [],
      "name": "name",
      "outputs": [
        {
          "internalType": "string",
          "name": "",
          "type": "string"
        }
      ],
      "stateMutability": "view",
      "type": "function"
    },
    {
      "inputs": [],
      "name": "owner",
      "outputs": [
        {
          "internalType": "address",
          "name": "",
          "type": "address"
        }
      ],
      "stateMutability": "view",
      "type": "function"
    },
    {
      "inputs": [],
      "name": "pricePerToken",
      "outputs": [
        {
          "internalType": "uint256",
          "name": "",
          "type": "uint256"
        }
      ],
      "stateMutability": "view",
      "type": "function"
    },
    {
      "inputs": [],
      "name": "renounceOwnership",
      "outputs": [],
      "stateMutability": "nonpayable",
      "type": "function"
    },
    {
      "inputs": [],
      "name": "symbol",
      "outputs": [
        {
          "internalType": "string",
          "name": "",
          "type": "string"
        }
      ],
      "stateMutability": "view",
      "type": "function"
    },
    {
      "inputs": [],
      "name": "totalSupply",
      "outputs": [
        {
          "internalType": "uint256",
          "name": "",
          "type": "uint256"
        }
      ],
      "stateMutability": "view",
      "type": "function"
    },
    {
      "inputs": [
        {
          "internalType": "address",
          "name": "to",
          "type": "address"
        },
        {
          "internalType": "uint256",
          "name": "value",
          "type": "uint256"
        }
      ],
      "name": "transfer",
      "outputs": [
        {
          "internalType": "bool",
          "name": "",
          "type": "bool"
        }
      ],
      "stateMutability": "nonpayable",
      "type": "function"
    },
    {
      "inputs": [
        {
          "internalType": "address",
          "name": "from",
          "type": "address"
        },
        {
          "internalType": "address",
          "name": "to",
          "type": "address"
        },
        {
          "internalType": "uint256",
          "name": "value",
          "type": "uint256"
        }
      ],
      "name": "transferFrom",
      "outputs": [
        {
          "internalType": "bool",
          "name": "",
          "type": "bool"
        }
      ],
      "stateMutability": "nonpayable",
      "type": "function"
    },
    {
      "inputs": [
        {
          "internalType": "address",
          "name": "newOwner",
          "type": "address"
        }
      ],
      "name": "transferOwnership",
      "outputs": [],
      "stateMutability": "nonpayable",
      "type": "function"
    },
    {
      "inputs": [
        {
          "internalType": "uint256",
          "name": "amount",
          "type": "uint256"
        }
      ],
      "name": "buyTokens",
      "outputs": [],
      "stateMutability": "payable",
      "type": "function"
    },
    {
      "inputs": [
        {
          "internalType": "uint256",
          "name": "newPrice",
          "type": "uint256"
        }
      ],
      "name": "updatePrice",
      "outputs": [],
      "stateMutability": "nonpayable",
      "type": "function"
    },
    {
      "inputs": [],
      "name": "withdrawFunds",
      "outputs": [],
      "stateMutability": "nonpayable",
      "type": "function"
    }
  ],
  "bytecode": "0x608060405234801562000010575f80fd5b506040516200135038038062001350833981016040819052620000339162000348565b338686600362000044838262000477565b50600462000053828262000477565b5050506001600160a01b0381166200008557604051631e4fbdf760e01b81525f60048201526024015b60405180910390fd5b6200009081620000ce565b506006839055600780546001600160a01b0319166001600160a01b0384161790556008819055620000c233856200011f565b50505050505062000565565b600580546001600160a01b038381166001600160a01b0319831681179093556040519116919082907f8be0079c531659141344cd1fd0a4f28419497f9722a3daafe3b4186f6b6457e0905f90a35050565b6001600160a01b0382166200014a5760405163ec442f0560e01b81525f60048201526024016200007c565b620001575f83836200015b565b5050565b6001600160a01b03831662000189578060025f8282546200017d91906200053f565b90915550620001fb9050565b6001600160a01b0383165f9081526020819052604090205481811015620001dd5760405163391434e360e21b81526001600160a01b038516600482015260248101829052604481018390526064016200007c565b6001600160a01b0384165f9081526020819052604090209082900390555b6001600160a01b038216620002195760028054829003905562000237565b6001600160a01b0382165f9081526020819052604090208054820190555b816001600160a01b0316836001600160a01b03167fddf252ad1be2c89b69c2b068fc378daa952ba7f163c4a11628f55a4df523b3ef836040516200027d91815260200190565b60405180910390a3505050565b634e487b7160e01b5f52604160045260245ffd5b5f82601f830112620002ae575f80fd5b81516001600160401b0380821115620002cb57620002cb6200028a565b604051601f8301601f19908116603f01168101908282118183101715620002f657620002f66200028a565b8160405283815260209250868385880101111562000312575f80fd5b5f91505b8382101562000335578582018301518183018401529082019062000316565b5f93810190920192909252949350505050565b5f805f805f8060c087890312156200035e575f80fd5b86516001600160401b038082111562000375575f80fd5b620003838a838b016200029e565b9750602089015191508082111562000399575f80fd5b50620003a889828a016200029e565b604089015160608a015160808b0151929850909650945090506001600160a01b0381168114620003d6575f80fd5b8092505060a087015190509295509295509295565b600181811c908216806200040057607f821691505b6020821081036200041f57634e487b7160e01b5f52602260045260245ffd5b50919050565b601f82111562000472575f81815260208120601f850160051c810160208610156200044d5750805b601f850160051c820191505b818110156200046e5782815560010162000459565b5050505b505050565b81516001600160401b038111156200049357620004936200028a565b620004ab81620004a48454620003eb565b8462000425565b602080601f831160018114620004e1575f8415620004c95750858301515b5f19600386901b1c1916600185901b1785556200046e565b5f85815260208120601f198616915b828110156200051157888601518255948401946001909101908401620004f0565b50858210156200052f57878501515f19600388901b60f8161c191681555b5050505050600190811b01905550565b808201808211156200055f57634e487b7160e01b5f52601160045260245ffd5b92915050565b610ddd80620005735f395ff3fe608060405260043610610105575f3560e01c806370a08231116100925780638da5cb5b116100625780638da5cb5b146102ab57806395d89b41146102c8578063a9059cbb146102dc578063dd62ed3e146102fb578063f2fde38b1461033f575f80fd5b806370a082311461022f578063715018a6146102635780637b1b1de6146102775780638d6cc56d1461028c575f80fd5b806324600fc3116100d857806324600fc31461019f578063278de000146101b5578063313ce567146101ca5780633610724e146101e55780636d25e175146101f8575f80fd5b806306fdde0314610109578063095ea7b31461013357806318160ddd1461016257806323b872dd14610180575b5f80fd5b348015610114575f80fd5b5061011d61035e565b60405161012a9190610bef565b60405180910390f35b34801561013e575f80fd5b5061015261014d366004610c55565b6103ee565b604051901515815260200161012a565b34801561016d575f80fd5b506002545b60405190815260200161012a565b34801561018b575f80fd5b5061015261019a366004610c7d565b610407565b3480156101aa575f80fd5b506101b361042a565b005b3480156101c0575f80fd5b5061017260065481565b3480156101d5575f80fd5b506040516012815260200161012a565b6101b36101f3366004610cb6565b61057e565b348015610203575f80fd5b50600754610217906001600160a01b031681565b6040516001600160a01b03909116815260200161012a565b34801561023a575f80fd5b50610172610249366004610ccd565b6001600160a01b03165f9081526020819052604090205490565b34801561026e575f80fd5b506101b361078f565b348015610282575f80fd5b5061017260085481565b348015610297575f80fd5b506101b36102a6366004610cb6565b6107a2565b3480156102b6575f80fd5b506005546001600160a01b0316610217565b3480156102d3575f80fd5b5061011d610841565b3480156102e7575f80fd5b506101526102f6366004610c55565b610850565b348015610306575f80fd5b50610172610315366004610ced565b6001600160a01b039182165f90815260016020908152604080832093909416825291909152205490565b34801561034a575f80fd5b506101b3610359366004610ccd565b61085d565b60606003805461036d90610d1e565b80601f016020809104026020016040519081016040528092919081815260200182805461039990610d1e565b80156103e45780601f106103bb576101008083540402835291602001916103e4565b820191905f5260205f20905b8154815290600101906020018083116103c757829003601f168201915b5050505050905090565b5f336103fb81858561089a565b60019150505b92915050565b5f336104148582856108a7565b61041f85858561091c565b506001949350505050565b610432610979565b478061047c5760405162461bcd60e51b81526020600482015260146024820152734e6f2066756e647320746f20776974686472617760601b60448201526064015b60405180910390fd5b5f61048f6005546001600160a01b031690565b6001600160a01b0316826040515f6040518083038185875af1925050503d805f81146104d6576040519150601f19603f3d011682016040523d82523d5f602084013e6104db565b606091505b505090508061052c5760405162461bcd60e51b815260206004820152601860248201527f4661696c656420746f2077697468647261772066756e647300000000000000006044820152606401610473565b6005546001600160a01b03166001600160a01b03167feaff4b37086828766ad3268786972c0cd24259d4c87a80f9d3963a3c3d999b0d8360405161057291815260200190565b60405180910390a25050565b5f81116105cd5760405162461bcd60e51b815260206004820152601d60248201527f416d6f756e74206d7573742062652067726561746572207468616e20300000006044820152606401610473565b5f600854826105dc9190610d6a565b9050803410156106255760405162461bcd60e51b8152602060048201526014602482015273125b9cdd59999a58da595b9d081c185e5b595b9d60621b6044820152606401610473565b8161063b6102496005546001600160a01b031690565b10156106895760405162461bcd60e51b815260206004820152601d60248201527f496e73756666696369656e7420746f6b656e7320617661696c61626c650000006044820152606401610473565b6106a561069e6005546001600160a01b031690565b338461091c565b604080518381526020810183905233917f8fafebcaf9d154343dad25669bfa277f4fbacd7ac6b0c4fed522580e040a0f33910160405180910390a25f6106eb8234610d81565b9050801561078a576040515f90339083908381818185875af1925050503d805f8114610732576040519150601f19603f3d011682016040523d82523d5f602084013e610737565b606091505b50509050806107885760405162461bcd60e51b815260206004820152601f60248201527f4661696c656420746f2072657475726e20657863657373207061796d656e74006044820152606401610473565b505b505050565b610797610979565b6107a05f6109a6565b565b6007546001600160a01b031633146107fc5760405162461bcd60e51b815260206004820152601e60248201527f43616c6c6572206973206e6f7420746865206661726d20666163746f727900006044820152606401610473565b600880549082905560408051828152602081018490527f945c1c4e99aa89f648fbfe3df471b916f719e16d960fcec0737d4d56bd696838910160405180910390a15050565b60606004805461036d90610d1e565b5f336103fb81858561091c565b610865610979565b6001600160a01b03811661088e57604051631e4fbdf760e01b81525f6004820152602401610473565b610897816109a6565b50565b61078a83838360016109f7565b6001600160a01b038381165f908152600160209081526040808320938616835292905220545f198114610788578181101561090e57604051637dc7a0d960e11b81526001600160a01b03841660048201526024810182905260448101839052606401610473565b61078884848484035f6109f7565b6001600160a01b03831661094557604051634b637e8f60e11b81525f6004820152602401610473565b6001600160a01b03821661096e5760405163ec442f0560e01b81525f6004820152602401610473565b61078a838383610ac9565b6005546001600160a01b031633146107a05760405163118cdaa760e01b8152336004820152602401610473565b600580546001600160a01b038381166001600160a01b0319831681179093556040519116919082907f8be0079c531659141344cd1fd0a4f28419497f9722a3daafe3b4186f6b6457e0905f90a35050565b6001600160a01b038416610a205760405163e602df0560e01b81525f6004820152602401610473565b6001600160a01b038316610a4957604051634a1406b160e11b81525f6004820152602401610473565b6001600160a01b038085165f908152600160209081526040808320938716835292905220829055801561078857826001600160a01b0316846001600160a01b03167f8c5be1e5ebec7d5bd14f71427d1e84f3dd0314c0f7b2291e5b200ac8c7c3b92584604051610abb91815260200190565b60405180910390a350505050565b6001600160a01b038316610af3578060025f828254610ae89190610d94565b90915550610b639050565b6001600160a01b0383165f9081526020819052604090205481811015610b455760405163391434e360e21b81526001600160a01b03851660048201526024810182905260448101839052606401610473565b6001600160a01b0384165f9081526020819052604090209082900390555b6001600160a01b038216610b7f57600280548290039055610b9d565b6001600160a01b0382165f9081526020819052604090208054820190555b816001600160a01b0316836001600160a01b03167fddf252ad1be2c89b69c2b068fc378daa952ba7f163c4a11628f55a4df523b3ef83604051610be291815260200190565b60405180910390a3505050565b5f6020808352835180828501525f5b81811015610c1a57858101830151858201604001528201610bfe565b505f604082860101526040601f19601f8301168501019250505092915050565b80356001600160a01b0381168114610c50575f80fd5b919050565b5f8060408385031215610c66575f80fd5b610c6f83610c3a565b946020939093013593505050565b5f805f60608486031215610c8f575f80fd5b610c9884610c3a565b9250610ca660208501610c3a565b9150604084013590509250925092565b5f60208284031215610cc6575f80fd5b5035919050565b5f60208284031215610cdd575f80fd5b610ce682610c3a565b9392505050565b5f8060408385031215610cfe575f80fd5b610d0783610c3a565b9150610d1560208401610c3a565b90509250929050565b600181811c90821680610d3257607f821691505b602082108103610d5057634e487b7160e01b5f52602260045260245ffd5b50919050565b634e487b7160e01b5f52601160045260245ffd5b808202811582820484141761040157610401610d56565b8181038181111561040157610401610d56565b8082018082111561040157610401610d5656fea264697066735822122099cac89fe354ef9615f9839d35baea41deb978413907528a7d546ea6dfac6c7664736f6c63430008140033",
  "immutableReferences": {},
  "source": "pragma solidity ^0.8.0;\n\nimport \"@openzeppelin/contracts/token/ERC20/ERC20.sol\";\nimport \"@openzeppelin/contracts/access/Ownable.sol\";\n\ncontract FarmToken is ERC20, Ownable {\n    uint256 public farmId;\n    address public farmFactory;\n    uint256 public pricePerToken;\n    \n    event TokensPurchased(address indexed buyer, uint256 amount, uint256 cost);\n    event PriceUpdated(uint256 oldPrice, uint256 newPrice);\n    event FundsWithdrawn(address indexed owner, uint256 amount);\n    \n    constructor(\n        string memory name,\n        string memory symbol,\n        uint256 _totalSupply,\n        uint256 _farmId,\n        address _farmFactory,\n        uint256 _pricePerToken\n    ) ERC20(name, symbol) Ownable(msg.sender) {\n        farmId = _farmId;\n        farmFactory = _farmFactory;\n        pricePerToken = _pricePerToken;\n        _mint(msg.sender, _totalSupply);\n    }\n    \n    function buyTokens(uint256 amount) public payable {\n        require(amount > 0, \"Amount must be greater than 0\");\n        \n        uint256 totalCost = amount * pricePerToken;\n        \n        require(msg.value >= totalCost, \"Insufficient payment\");\n        require(balanceOf(owner()) >= amount, \"Insufficient tokens available\");\n        \n        _transfer(owner(), msg.sender, amount);\n        emit TokensPurchased(msg.sender, amount, totalCost);\n        \n        uint256 excess = msg.value - totalCost;\n        if(excess > 0) {\n            (bool success, ) = payable(msg.sender).call{value: excess}(\"\");\n            require(success, \"Failed to return excess payment\");\n        }\n    }\n    \n    modifier onlyFarmFactory() {\n        require(msg.sender == farmFactory, \"Caller is not the farm factory\");\n        _;\n    }\n    \n    function updatePrice(uint256 newPrice) public onlyFarmFactory {\n        uint256 oldPrice = pricePerToken;\n        pricePerToken = newPrice;\n        emit PriceUpdated(oldPrice, newPrice);\n    }\n    \n    function withdrawFunds() public onlyOwner {\n        uint256 balance = address(this).balance;\n        require(balance > 0, \"No funds to withdraw\");\n        \n        (bool success, ) = payable(owner()).call{value: balance}(\"\");\n        require(success, \"Failed to withdraw funds\");\n        emit FundsWithdrawn(owner(), balance);\n    }\n} ",
  "sourcePath": "/Users/valenscarpentier/repos/demeter/contracts/FarmToken.sol",
  "compiler": {
    "name": "solc",
    "version": "0.8.20+commit.a1b79de6.Emscripten.clang"
  },
  "schemaVersion": "3.4.16",
  "updatedAt": "2024-11-18T17:48:21.278Z",
  "devdoc": {
    "errors": {
      "ERC20InsufficientAllowance(address,uint256,uint256)": [
        {
          "details": "Indicates a failure with the `spender`s `allowance`. Used in transfers.",
          "params": {
            "allowance": "Amount of tokens a `spender` is allowed to operate with.",
            "needed": "Minimum amount required to perform a transfer.",
            "spender": "Address that may be allowed to operate on tokens without being their owner."
          }
        }
      ],
      "ERC20InsufficientBalance(address,uint256,uint256)": [
        {
          "details": "Indicates an error related to the current `balance` of a `sender`. Used in transfers.",
          "params": {
            "balance": "Current balance for the interacting account.",
            "needed": "Minimum amount required to perform a transfer.",
            "sender": "Address whose tokens are being transferred."
          }
        }
      ],
      "ERC20InvalidApprover(address)": [
        {
          "details": "Indicates a failure with the `approver` of a token to be approved. Used in approvals.",
          "params": {
            "approver": "Address initiating an approval operation."
          }
        }
      ],
      "ERC20InvalidReceiver(address)": [
        {
          "details": "Indicates a failure with the token `receiver`. Used in transfers.",
          "params": {
            "receiver": "Address to which tokens are being transferred."
          }
        }
      ],
      "ERC20InvalidSender(address)": [
        {
          "details": "Indicates a failure with the token `sender`. Used in transfers.",
          "params": {
            "sender": "Address whose tokens are being transferred."
          }
        }
      ],
      "ERC20InvalidSpender(address)": [
        {
          "details": "Indicates a failure with the `spender` to be approved. Used in approvals.",
          "params": {
            "spender": "Address that may be allowed to operate on tokens without being their owner."
          }
        }
      ],
      "OwnableInvalidOwner(address)": [
        {
          "details": "The owner is not a valid owner account. (eg. `address(0)`)"
        }
      ],
      "OwnableUnauthorizedAccount(address)": [
        {
          "details": "The caller account is not authorized to perform an operation."
        }
      ]
    },
    "events": {
      "Approval(address,address,uint256)": {
        "details": "Emitted when the allowance of a `spender` for an `owner` is set by a call to {approve}. `value` is the new allowance."
      },
      "Transfer(address,address,uint256)": {
        "details": "Emitted when `value` tokens are moved from one account (`from`) to another (`to`). Note that `value` may be zero."
      }
    },
    "kind": "dev",
    "methods": {
      "allowance(address,address)": {
        "details": "See {IERC20-allowance}."
      },
      "approve(address,uint256)": {
        "details": "See {IERC20-approve}. NOTE: If `value` is the maximum `uint256`, the allowance is not updated on `transferFrom`. This is semantically equivalent to an infinite approval. Requirements: - `spender` cannot be the zero address."
      },
      "balanceOf(address)": {
        "details": "See {IERC20-balanceOf}."
      },
      "decimals()": {
        "details": "Returns the number of decimals used to get its user representation. For example, if `decimals` equals `2`, a balance of `505` tokens should be displayed to a user as `5.05` (`505 / 10 ** 2`). Tokens usually opt for a value of 18, imitating the relationship between Ether and Wei. This is the default value returned by this function, unless it's overridden. NOTE: This information is only used for _display_ purposes: it in no way affects any of the arithmetic of the contract, including {IERC20-balanceOf} and {IERC20-transfer}."
      },
      "name()": {
        "details": "Returns the name of the token."
      },
      "owner()": {
        "details": "Returns the address of the current owner."
      },
      "renounceOwnership()": {
        "details": "Leaves the contract without owner. It will not be possible to call `onlyOwner` functions. Can only be called by the current owner. NOTE: Renouncing ownership will leave the contract without an owner, thereby disabling any functionality that is only available to the owner."
      },
      "symbol()": {
        "details": "Returns the symbol of the token, usually a shorter version of the name."
      },
      "totalSupply()": {
        "details": "See {IERC20-totalSupply}."
      },
      "transfer(address,uint256)": {
        "details": "See {IERC20-transfer}. Requirements: - `to` cannot be the zero address. - the caller must have a balance of at least `value`."
      },
      "transferFrom(address,address,uint256)": {
        "details": "See {IERC20-transferFrom}. Skips emitting an {Approval} event indicating an allowance update. This is not required by the ERC. See {xref-ERC20-_approve-address-address-uint256-bool-}[_approve]. NOTE: Does not update the allowance if the current allowance is the maximum `uint256`. Requirements: - `from` and `to` cannot be the zero address. - `from` must have a balance of at least `value`. - the caller must have allowance for ``from``'s tokens of at least `value`."
      },
      "transferOwnership(address)": {
        "details": "Transfers ownership of the contract to a new account (`newOwner`). Can only be called by the current owner."
      }
    },
    "version": 1
  },
  "userdoc": {
    "kind": "user",
    "methods": {},
    "version": 1
  }
}