{
  "contractName": "FarmFactory",
  "abi": [
    {
      "anonymous": false,
      "inputs": [
        {
          "indexed": false,
          "internalType": "uint256",
          "name": "farmId",
          "type": "uint256"
        },
        {
          "indexed": false,
          "internalType": "address",
          "name": "owner",
          "type": "address"
        },
        {
          "indexed": false,
          "internalType": "string",
          "name": "name",
          "type": "string"
        },
        {
          "indexed": false,
          "internalType": "uint256",
          "name": "timestamp",
          "type": "uint256"
        }
      ],
      "name": "FarmCreated",
      "type": "event"
    },
    {
      "anonymous": false,
      "inputs": [
        {
          "indexed": false,
          "internalType": "uint256",
          "name": "farmId",
          "type": "uint256"
        },
        {
          "indexed": false,
          "internalType": "uint256",
          "name": "timestamp",
          "type": "uint256"
        }
      ],
      "name": "FarmDeactivated",
      "type": "event"
    },
    {
      "inputs": [
        {
          "internalType": "uint256",
          "name": "",
          "type": "uint256"
        }
      ],
      "name": "farms",
      "outputs": [
        {
          "internalType": "address",
          "name": "token",
          "type": "address"
        },
        {
          "internalType": "address",
          "name": "owner",
          "type": "address"
        },
        {
          "internalType": "string",
          "name": "name",
          "type": "string"
        },
        {
          "internalType": "uint256",
          "name": "sizeInAcres",
          "type": "uint256"
        },
        {
          "internalType": "uint256",
          "name": "totalTokenSupply",
          "type": "uint256"
        },
        {
          "internalType": "uint256",
          "name": "valuation",
          "type": "uint256"
        },
        {
          "internalType": "uint256",
          "name": "expectedOutcomePercentage",
          "type": "uint256"
        },
        {
          "internalType": "bool",
          "name": "isActive",
          "type": "bool"
        },
        {
          "internalType": "uint256",
          "name": "timestamp",
          "type": "uint256"
        }
      ],
      "stateMutability": "view",
      "type": "function",
      "constant": true
    },
    {
      "inputs": [
        {
          "internalType": "address",
          "name": "",
          "type": "address"
        },
        {
          "internalType": "uint256",
          "name": "",
          "type": "uint256"
        }
      ],
      "name": "farmsByOwner",
      "outputs": [
        {
          "internalType": "uint256",
          "name": "",
          "type": "uint256"
        }
      ],
      "stateMutability": "view",
      "type": "function",
      "constant": true
    },
    {
      "inputs": [
        {
          "internalType": "address",
          "name": "",
          "type": "address"
        }
      ],
      "name": "ownerFarmCount",
      "outputs": [
        {
          "internalType": "uint256",
          "name": "",
          "type": "uint256"
        }
      ],
      "stateMutability": "view",
      "type": "function",
      "constant": true
    },
    {
      "inputs": [
        {
          "internalType": "uint256",
          "name": "_farmId",
          "type": "uint256"
        }
      ],
      "name": "getFarm",
      "outputs": [
        {
          "components": [
            {
              "internalType": "address",
              "name": "token",
              "type": "address"
            },
            {
              "internalType": "address",
              "name": "owner",
              "type": "address"
            },
            {
              "internalType": "string",
              "name": "name",
              "type": "string"
            },
            {
              "internalType": "uint256",
              "name": "sizeInAcres",
              "type": "uint256"
            },
            {
              "internalType": "uint256",
              "name": "totalTokenSupply",
              "type": "uint256"
            },
            {
              "internalType": "uint256",
              "name": "valuation",
              "type": "uint256"
            },
            {
              "internalType": "uint256",
              "name": "expectedOutcomePercentage",
              "type": "uint256"
            },
            {
              "internalType": "bool",
              "name": "isActive",
              "type": "bool"
            },
            {
              "internalType": "uint256",
              "name": "timestamp",
              "type": "uint256"
            }
          ],
          "internalType": "struct FarmFactory.Farm",
          "name": "",
          "type": "tuple"
        }
      ],
      "stateMutability": "view",
      "type": "function",
      "constant": true
    },
    {
      "inputs": [
        {
          "internalType": "uint256",
          "name": "_farmId",
          "type": "uint256"
        }
      ],
      "name": "deactivateFarm",
      "outputs": [],
      "stateMutability": "nonpayable",
      "type": "function"
    },
    {
      "inputs": [],
      "name": "getTotalFarms",
      "outputs": [
        {
          "internalType": "uint256",
          "name": "",
          "type": "uint256"
        }
      ],
      "stateMutability": "view",
      "type": "function",
      "constant": true
    },
    {
      "inputs": [
        {
          "internalType": "uint256",
          "name": "_farmId",
          "type": "uint256"
        },
        {
          "internalType": "uint256",
          "name": "_newValuation",
          "type": "uint256"
        }
      ],
      "name": "updateFarmValuation",
      "outputs": [],
      "stateMutability": "nonpayable",
      "type": "function"
    },
    {
      "inputs": [
        {
          "internalType": "string",
          "name": "_farmName",
          "type": "string"
        },
        {
          "internalType": "string",
          "name": "_tokenName",
          "type": "string"
        },
        {
          "internalType": "string",
          "name": "_tokenSymbol",
          "type": "string"
        },
        {
          "internalType": "uint256",
          "name": "_sizeInAcres",
          "type": "uint256"
        },
        {
          "internalType": "uint256",
          "name": "_totalTokenSupply",
          "type": "uint256"
        },
        {
          "internalType": "uint256",
          "name": "_valuation",
          "type": "uint256"
        },
        {
          "internalType": "uint256",
          "name": "_expectedOutcomePercentage",
          "type": "uint256"
        },
        {
          "internalType": "uint256",
          "name": "_pricePerToken",
          "type": "uint256"
        }
      ],
      "name": "createFarmWithToken",
      "outputs": [
        {
          "internalType": "uint256",
          "name": "",
          "type": "uint256"
        }
      ],
      "stateMutability": "nonpayable",
      "type": "function"
    },
    {
      "inputs": [
        {
          "internalType": "uint256",
          "name": "_farmId",
          "type": "uint256"
        }
      ],
      "name": "getFarmTokenAddress",
      "outputs": [
        {
          "internalType": "address",
          "name": "",
          "type": "address"
        }
      ],
      "stateMutability": "view",
      "type": "function",
      "constant": true
    }
  ],
  "bytecode": "0x608060405234801561000f575f80fd5b506124a78061001d5f395ff3fe608060405234801562000010575f80fd5b50600436106200009c575f3560e01c80636ecf1f12116200006b5780636ecf1f1214620001115780637da470ea14620001335780639284c2321462000161578063d625894d1462000191578063d6e8aa5e14620001a8575f80fd5b806324e826a014620000a05780633c42febc14620000ca57806353fd88bf14620000e35780635ee485b71462000109575b5f80fd5b620000b7620000b136600462000c2e565b620001bf565b6040519081526020015b60405180910390f35b620000e1620000db36600462000ce6565b62000227565b005b620000fa620000f436600462000ce6565b620003a6565b604051620000c1919062000d43565b5f54620000b7565b620000b76200012236600462000e06565b60026020525f908152604090205481565b6200014a6200014436600462000ce6565b6200057e565b604051620000c19998979695949392919062000e29565b620001786200017236600462000ce6565b62000678565b6040516001600160a01b039091168152602001620000c1565b620000b7620001a236600462000e8e565b620006f5565b620000e1620001b936600462000eb9565b62000721565b5f808888875f805490503087604051620001d99062000b7b565b620001ea9695949392919062000eda565b604051809103905ff08015801562000204573d5f803e3d5ffd5b5090505f62000218828c8a8a8a8a6200083b565b9b9a5050505050505050505050565b80336001600160a01b03165f828154811062000247576200024762000f31565b5f9182526020909120600160099092020101546001600160a01b031614620002ab5760405162461bcd60e51b81526020600482015260126024820152712737ba103a3432903330b9369037bbb732b960711b60448201526064015b60405180910390fd5b5f8281548110620002c057620002c062000f31565b5f91825260209091206007600990920201015460ff16620003245760405162461bcd60e51b815260206004820152601860248201527f4661726d20697320616c726561647920696e61637469766500000000000000006044820152606401620002a2565b5f8083815481106200033a576200033a62000f31565b905f5260205f2090600902016007015f6101000a81548160ff0219169083151502179055507fee9c592ee8e85058b8ca8f194089cd41e51c85d97af6caac07cae6ebc28a36d182426040516200039a929190918252602082015260400190565b60405180910390a15050565b620004026040518061012001604052805f6001600160a01b031681526020015f6001600160a01b03168152602001606081526020015f81526020015f81526020015f81526020015f81526020015f151581526020015f81525090565b5f5482106200044a5760405162461bcd60e51b815260206004820152601360248201527211985c9b48191bd95cc81b9bdd08195e1a5cdd606a1b6044820152606401620002a2565b5f82815481106200045f576200045f62000f31565b5f9182526020918290206040805161012081018252600990930290910180546001600160a01b0390811684526001820154169383019390935260028301805492939291840191620004b09062000f45565b80601f0160208091040260200160405190810160405280929190818152602001828054620004de9062000f45565b80156200052d5780601f1062000503576101008083540402835291602001916200052d565b820191905f5260205f20905b8154815290600101906020018083116200050f57829003601f168201915b505050918352505060038201546020820152600482015460408201526005820154606082015260068201546080820152600782015460ff16151560a082015260089091015460c09091015292915050565b5f81815481106200058d575f80fd5b5f9182526020909120600990910201805460018201546002830180546001600160a01b039384169550929091169291620005c79062000f45565b80601f0160208091040260200160405190810160405280929190818152602001828054620005f59062000f45565b8015620006445780601f106200061a5761010080835404028352916020019162000644565b820191905f5260205f20905b8154815290600101906020018083116200062657829003601f168201915b50505060038401546004850154600586015460068701546007880154600890980154969793969295509093509160ff169089565b5f80548210620006c15760405162461bcd60e51b815260206004820152601360248201527211985c9b48191bd95cc81b9bdd08195e1a5cdd606a1b6044820152606401620002a2565b5f8281548110620006d657620006d662000f31565b5f9182526020909120600990910201546001600160a01b031692915050565b6001602052815f5260405f2081815481106200070f575f80fd5b905f5260205f20015f91509150505481565b81336001600160a01b03165f828154811062000741576200074162000f31565b5f9182526020909120600160099092020101546001600160a01b031614620007a15760405162461bcd60e51b81526020600482015260126024820152712737ba103a3432903330b9369037bbb732b960711b6044820152606401620002a2565b5f8381548110620007b657620007b662000f31565b5f91825260209091206007600990920201015460ff166200080d5760405162461bcd60e51b815260206004820152601060248201526f4661726d20697320696e61637469766560801b6044820152606401620002a2565b815f848154811062000823576200082362000f31565b905f5260205f20906009020160050181905550505050565b5f6001600160a01b0387166200088c5760405162461bcd60e51b8152602060048201526015602482015274496e76616c696420746f6b656e206164647265737360581b6044820152606401620002a2565b5f865111620008d55760405162461bcd60e51b81526020600482015260146024820152734e616d652063616e6e6f7420626520656d70747960601b6044820152606401620002a2565b5f8511620009265760405162461bcd60e51b815260206004820152601b60248201527f53697a65206d7573742062652067726561746572207468616e203000000000006044820152606401620002a2565b5f8411620009895760405162461bcd60e51b815260206004820152602960248201527f546f74616c20746f6b656e20737570706c79206d75737420626520677265617460448201526806572207468616e20360bc1b6064820152608401620002a2565b60408051610120810182526001600160a01b03808a1682523360208301908152928201898152606083018990526080830188905260a0830187905260c08301869052600160e08401819052426101008501525f805491820181558052835160099091027f290decd9548b62a8d60345a988386fc84ba6bc95484008f6362f93160ef3e563810180549285166001600160a01b031993841617815595517f290decd9548b62a8d60345a988386fc84ba6bc95484008f6362f93160ef3e5648201805491909516921691909117909255519192839290917f290decd9548b62a8d60345a988386fc84ba6bc95484008f6362f93160ef3e565019062000a8d908262000fd1565b50606082015160038201556080820151600482015560a0820151600582015560c0820151600682015560e082015160078201805460ff1916911515919091179055610100909101516008909101555f805462000aec90600190620010ae565b335f818152600160208181526040808420805493840181558452818420909201859055928252600290925290812080549293509062000b2b83620010ca565b91905055507fc7d96eb1e6956e305b8bb205057328708cc24e0dfd75db31bdb0e5ad82cdf7f781338a4260405162000b679493929190620010e5565b60405180910390a198975050505050505050565b611350806200112283390190565b634e487b7160e01b5f52604160045260245ffd5b5f82601f83011262000bad575f80fd5b813567ffffffffffffffff8082111562000bcb5762000bcb62000b89565b604051601f8301601f19908116603f0116810190828211818310171562000bf65762000bf662000b89565b8160405283815286602085880101111562000c0f575f80fd5b836020870160208301375f602085830101528094505050505092915050565b5f805f805f805f80610100898b03121562000c47575f80fd5b883567ffffffffffffffff8082111562000c5f575f80fd5b62000c6d8c838d0162000b9d565b995060208b013591508082111562000c83575f80fd5b62000c918c838d0162000b9d565b985060408b013591508082111562000ca7575f80fd5b5062000cb68b828c0162000b9d565b989b979a5097986060810135985060808101359760a0820135975060c0820135965060e090910135945092505050565b5f6020828403121562000cf7575f80fd5b5035919050565b5f81518084525f5b8181101562000d245760208185018101518683018201520162000d06565b505f602082860101526020601f19601f83011685010191505092915050565b6020815262000d5e6020820183516001600160a01b03169052565b5f602083015162000d7a60408401826001600160a01b03169052565b50604083015161012080606085015262000d9961014085018362000cfe565b915060608501516080850152608085015160a085015260a085015160c085015260c085015160e085015260e085015161010062000dd98187018315159052565b959095015193019290925250919050565b80356001600160a01b038116811462000e01575f80fd5b919050565b5f6020828403121562000e17575f80fd5b62000e228262000dea565b9392505050565b6001600160a01b038a8116825289166020820152610120604082018190525f9062000e578382018b62000cfe565b60608401999099525050608081019590955260a085019390935260c0840191909152151560e0830152610100909101529392505050565b5f806040838503121562000ea0575f80fd5b62000eab8362000dea565b946020939093013593505050565b5f806040838503121562000ecb575f80fd5b50508035926020909101359150565b60c081525f62000eee60c083018962000cfe565b828103602084015262000f02818962000cfe565b6040840197909752505060608101939093526001600160a01b0391909116608083015260a09091015292915050565b634e487b7160e01b5f52603260045260245ffd5b600181811c9082168062000f5a57607f821691505b60208210810362000f7957634e487b7160e01b5f52602260045260245ffd5b50919050565b601f82111562000fcc575f81815260208120601f850160051c8101602086101562000fa75750805b601f850160051c820191505b8181101562000fc85782815560010162000fb3565b5050505b505050565b815167ffffffffffffffff81111562000fee5762000fee62000b89565b620010068162000fff845462000f45565b8462000f7f565b602080601f8311600181146200103c575f8415620010245750858301515b5f19600386901b1c1916600185901b17855562000fc8565b5f85815260208120601f198616915b828110156200106c578886015182559484019460019091019084016200104b565b50858210156200108a57878501515f19600388901b60f8161c191681555b5050505050600190811b01905550565b634e487b7160e01b5f52601160045260245ffd5b81810381811115620010c457620010c46200109a565b92915050565b5f60018201620010de57620010de6200109a565b5060010190565b8481526001600160a01b03841660208201526080604082018190525f90620011109083018562000cfe565b90508260608301529594505050505056fe608060405234801562000010575f80fd5b506040516200135038038062001350833981016040819052620000339162000348565b338686600362000044838262000477565b50600462000053828262000477565b5050506001600160a01b0381166200008557604051631e4fbdf760e01b81525f60048201526024015b60405180910390fd5b6200009081620000ce565b506006839055600780546001600160a01b0319166001600160a01b0384161790556008819055620000c233856200011f565b50505050505062000565565b600580546001600160a01b038381166001600160a01b0319831681179093556040519116919082907f8be0079c531659141344cd1fd0a4f28419497f9722a3daafe3b4186f6b6457e0905f90a35050565b6001600160a01b0382166200014a5760405163ec442f0560e01b81525f60048201526024016200007c565b620001575f83836200015b565b5050565b6001600160a01b03831662000189578060025f8282546200017d91906200053f565b90915550620001fb9050565b6001600160a01b0383165f9081526020819052604090205481811015620001dd5760405163391434e360e21b81526001600160a01b038516600482015260248101829052604481018390526064016200007c565b6001600160a01b0384165f9081526020819052604090209082900390555b6001600160a01b038216620002195760028054829003905562000237565b6001600160a01b0382165f9081526020819052604090208054820190555b816001600160a01b0316836001600160a01b03167fddf252ad1be2c89b69c2b068fc378daa952ba7f163c4a11628f55a4df523b3ef836040516200027d91815260200190565b60405180910390a3505050565b634e487b7160e01b5f52604160045260245ffd5b5f82601f830112620002ae575f80fd5b81516001600160401b0380821115620002cb57620002cb6200028a565b604051601f8301601f19908116603f01168101908282118183101715620002f657620002f66200028a565b8160405283815260209250868385880101111562000312575f80fd5b5f91505b8382101562000335578582018301518183018401529082019062000316565b5f93810190920192909252949350505050565b5f805f805f8060c087890312156200035e575f80fd5b86516001600160401b038082111562000375575f80fd5b620003838a838b016200029e565b9750602089015191508082111562000399575f80fd5b50620003a889828a016200029e565b604089015160608a015160808b0151929850909650945090506001600160a01b0381168114620003d6575f80fd5b8092505060a087015190509295509295509295565b600181811c908216806200040057607f821691505b6020821081036200041f57634e487b7160e01b5f52602260045260245ffd5b50919050565b601f82111562000472575f81815260208120601f850160051c810160208610156200044d5750805b601f850160051c820191505b818110156200046e5782815560010162000459565b5050505b505050565b81516001600160401b038111156200049357620004936200028a565b620004ab81620004a48454620003eb565b8462000425565b602080601f831160018114620004e1575f8415620004c95750858301515b5f19600386901b1c1916600185901b1785556200046e565b5f85815260208120601f198616915b828110156200051157888601518255948401946001909101908401620004f0565b50858210156200052f57878501515f19600388901b60f8161c191681555b5050505050600190811b01905550565b808201808211156200055f57634e487b7160e01b5f52601160045260245ffd5b92915050565b610ddd80620005735f395ff3fe608060405260043610610105575f3560e01c806370a08231116100925780638da5cb5b116100625780638da5cb5b146102ab57806395d89b41146102c8578063a9059cbb146102dc578063dd62ed3e146102fb578063f2fde38b1461033f575f80fd5b806370a082311461022f578063715018a6146102635780637b1b1de6146102775780638d6cc56d1461028c575f80fd5b806324600fc3116100d857806324600fc31461019f578063278de000146101b5578063313ce567146101ca5780633610724e146101e55780636d25e175146101f8575f80fd5b806306fdde0314610109578063095ea7b31461013357806318160ddd1461016257806323b872dd14610180575b5f80fd5b348015610114575f80fd5b5061011d61035e565b60405161012a9190610bef565b60405180910390f35b34801561013e575f80fd5b5061015261014d366004610c55565b6103ee565b604051901515815260200161012a565b34801561016d575f80fd5b506002545b60405190815260200161012a565b34801561018b575f80fd5b5061015261019a366004610c7d565b610407565b3480156101aa575f80fd5b506101b361042a565b005b3480156101c0575f80fd5b5061017260065481565b3480156101d5575f80fd5b506040516012815260200161012a565b6101b36101f3366004610cb6565b61057e565b348015610203575f80fd5b50600754610217906001600160a01b031681565b6040516001600160a01b03909116815260200161012a565b34801561023a575f80fd5b50610172610249366004610ccd565b6001600160a01b03165f9081526020819052604090205490565b34801561026e575f80fd5b506101b361078f565b348015610282575f80fd5b5061017260085481565b348015610297575f80fd5b506101b36102a6366004610cb6565b6107a2565b3480156102b6575f80fd5b506005546001600160a01b0316610217565b3480156102d3575f80fd5b5061011d610841565b3480156102e7575f80fd5b506101526102f6366004610c55565b610850565b348015610306575f80fd5b50610172610315366004610ced565b6001600160a01b039182165f90815260016020908152604080832093909416825291909152205490565b34801561034a575f80fd5b506101b3610359366004610ccd565b61085d565b60606003805461036d90610d1e565b80601f016020809104026020016040519081016040528092919081815260200182805461039990610d1e565b80156103e45780601f106103bb576101008083540402835291602001916103e4565b820191905f5260205f20905b8154815290600101906020018083116103c757829003601f168201915b5050505050905090565b5f336103fb81858561089a565b60019150505b92915050565b5f336104148582856108a7565b61041f85858561091c565b506001949350505050565b610432610979565b478061047c5760405162461bcd60e51b81526020600482015260146024820152734e6f2066756e647320746f20776974686472617760601b60448201526064015b60405180910390fd5b5f61048f6005546001600160a01b031690565b6001600160a01b0316826040515f6040518083038185875af1925050503d805f81146104d6576040519150601f19603f3d011682016040523d82523d5f602084013e6104db565b606091505b505090508061052c5760405162461bcd60e51b815260206004820152601860248201527f4661696c656420746f2077697468647261772066756e647300000000000000006044820152606401610473565b6005546001600160a01b03166001600160a01b03167feaff4b37086828766ad3268786972c0cd24259d4c87a80f9d3963a3c3d999b0d8360405161057291815260200190565b60405180910390a25050565b5f81116105cd5760405162461bcd60e51b815260206004820152601d60248201527f416d6f756e74206d7573742062652067726561746572207468616e20300000006044820152606401610473565b5f600854826105dc9190610d6a565b9050803410156106255760405162461bcd60e51b8152602060048201526014602482015273125b9cdd59999a58da595b9d081c185e5b595b9d60621b6044820152606401610473565b8161063b6102496005546001600160a01b031690565b10156106895760405162461bcd60e51b815260206004820152601d60248201527f496e73756666696369656e7420746f6b656e7320617661696c61626c650000006044820152606401610473565b6106a561069e6005546001600160a01b031690565b338461091c565b604080518381526020810183905233917f8fafebcaf9d154343dad25669bfa277f4fbacd7ac6b0c4fed522580e040a0f33910160405180910390a25f6106eb8234610d81565b9050801561078a576040515f90339083908381818185875af1925050503d805f8114610732576040519150601f19603f3d011682016040523d82523d5f602084013e610737565b606091505b50509050806107885760405162461bcd60e51b815260206004820152601f60248201527f4661696c656420746f2072657475726e20657863657373207061796d656e74006044820152606401610473565b505b505050565b610797610979565b6107a05f6109a6565b565b6007546001600160a01b031633146107fc5760405162461bcd60e51b815260206004820152601e60248201527f43616c6c6572206973206e6f7420746865206661726d20666163746f727900006044820152606401610473565b600880549082905560408051828152602081018490527f945c1c4e99aa89f648fbfe3df471b916f719e16d960fcec0737d4d56bd696838910160405180910390a15050565b60606004805461036d90610d1e565b5f336103fb81858561091c565b610865610979565b6001600160a01b03811661088e57604051631e4fbdf760e01b81525f6004820152602401610473565b610897816109a6565b50565b61078a83838360016109f7565b6001600160a01b038381165f908152600160209081526040808320938616835292905220545f198114610788578181101561090e57604051637dc7a0d960e11b81526001600160a01b03841660048201526024810182905260448101839052606401610473565b61078884848484035f6109f7565b6001600160a01b03831661094557604051634b637e8f60e11b81525f6004820152602401610473565b6001600160a01b03821661096e5760405163ec442f0560e01b81525f6004820152602401610473565b61078a838383610ac9565b6005546001600160a01b031633146107a05760405163118cdaa760e01b8152336004820152602401610473565b600580546001600160a01b038381166001600160a01b0319831681179093556040519116919082907f8be0079c531659141344cd1fd0a4f28419497f9722a3daafe3b4186f6b6457e0905f90a35050565b6001600160a01b038416610a205760405163e602df0560e01b81525f6004820152602401610473565b6001600160a01b038316610a4957604051634a1406b160e11b81525f6004820152602401610473565b6001600160a01b038085165f908152600160209081526040808320938716835292905220829055801561078857826001600160a01b0316846001600160a01b03167f8c5be1e5ebec7d5bd14f71427d1e84f3dd0314c0f7b2291e5b200ac8c7c3b92584604051610abb91815260200190565b60405180910390a350505050565b6001600160a01b038316610af3578060025f828254610ae89190610d94565b90915550610b639050565b6001600160a01b0383165f9081526020819052604090205481811015610b455760405163391434e360e21b81526001600160a01b03851660048201526024810182905260448101839052606401610473565b6001600160a01b0384165f9081526020819052604090209082900390555b6001600160a01b038216610b7f57600280548290039055610b9d565b6001600160a01b0382165f9081526020819052604090208054820190555b816001600160a01b0316836001600160a01b03167fddf252ad1be2c89b69c2b068fc378daa952ba7f163c4a11628f55a4df523b3ef83604051610be291815260200190565b60405180910390a3505050565b5f6020808352835180828501525f5b81811015610c1a57858101830151858201604001528201610bfe565b505f604082860101526040601f19601f8301168501019250505092915050565b80356001600160a01b0381168114610c50575f80fd5b919050565b5f8060408385031215610c66575f80fd5b610c6f83610c3a565b946020939093013593505050565b5f805f60608486031215610c8f575f80fd5b610c9884610c3a565b9250610ca660208501610c3a565b9150604084013590509250925092565b5f60208284031215610cc6575f80fd5b5035919050565b5f60208284031215610cdd575f80fd5b610ce682610c3a565b9392505050565b5f8060408385031215610cfe575f80fd5b610d0783610c3a565b9150610d1560208401610c3a565b90509250929050565b600181811c90821680610d3257607f821691505b602082108103610d5057634e487b7160e01b5f52602260045260245ffd5b50919050565b634e487b7160e01b5f52601160045260245ffd5b808202811582820484141761040157610401610d56565b8181038181111561040157610401610d56565b8082018082111561040157610401610d5656fea264697066735822122099cac89fe354ef9615f9839d35baea41deb978413907528a7d546ea6dfac6c7664736f6c63430008140033a2646970667358221220ca2e796c7010871f5ca240746da2148a534543d226ee295603b5a6a6c4108bf464736f6c63430008140033",
  "immutableReferences": {},
  "source": "pragma solidity ^0.8.0;\n\nimport \"./FarmToken.sol\";\n\ncontract FarmFactory {\n\n    struct Farm {\n        address token;        // Address of the farm's token contract\n        address owner;        // Wallet address of the farm owner\n        string name;         // Name of the farm\n        uint256 sizeInAcres; // Physical size of the farm\n        uint256 totalTokenSupply; // Total number of tokens for this farm\n        uint256 valuation;   // Current value of the farm\n        uint256 expectedOutcomePercentage; // Expected return/performance\n        bool isActive;       // Whether the farm is currently active\n        uint256 timestamp;   // When the farm was created\n    }\n\n    Farm[] public farms;\n\n    mapping(address => uint[]) public farmsByOwner;\n    mapping(address => uint256) public ownerFarmCount;\n\n    event FarmCreated(uint256 farmId, address owner, string name, uint256 timestamp);\n    event FarmDeactivated(uint256 farmId, uint256 timestamp);\n\n    modifier onlyFarmOwner(uint256 _farmId) {\n        require(farms[_farmId].owner == msg.sender, \"Not the farm owner\");\n        _;\n    }\n\n    function createFarm(\n        address _token,\n        string memory _name,\n        uint256 _sizeInAcres,\n        uint256 _totalTokenSupply,\n        uint256 _valuation,\n        uint256 _expectedOutcomePercentage\n    ) internal returns (uint256) {\n        require(_token != address(0), \"Invalid token address\");\n        require(bytes(_name).length > 0, \"Name cannot be empty\");\n        require(_sizeInAcres > 0, \"Size must be greater than 0\");\n        require(_totalTokenSupply > 0, \"Total token supply must be greater than 0\");\n        \n        Farm memory newFarm = Farm({\n            token: _token,\n            owner: msg.sender,\n            name: _name,\n            sizeInAcres: _sizeInAcres,\n            totalTokenSupply: _totalTokenSupply,\n            valuation: _valuation,\n            expectedOutcomePercentage: _expectedOutcomePercentage,\n            isActive: true,\n            timestamp: block.timestamp\n        });\n        \n        farms.push(newFarm);\n        uint256 newFarmId = farms.length - 1;\n        \n        farmsByOwner[msg.sender].push(newFarmId);\n        ownerFarmCount[msg.sender]++;\n        \n        emit FarmCreated(newFarmId, msg.sender, _name, block.timestamp);\n        \n        return newFarmId;\n    }\n    \n    function getFarm(uint256 _farmId) public view returns (Farm memory) {\n        require(_farmId < farms.length, \"Farm does not exist\");\n        return farms[_farmId];\n    }\n    \n    function deactivateFarm(uint256 _farmId) public onlyFarmOwner(_farmId) {\n        require(farms[_farmId].isActive, \"Farm is already inactive\");\n        farms[_farmId].isActive = false;\n        emit FarmDeactivated(_farmId, block.timestamp);\n    }\n    \n    function getTotalFarms() public view returns (uint256) {\n        return farms.length;\n    }\n    \n    function updateFarmValuation(uint256 _farmId, uint256 _newValuation) public onlyFarmOwner(_farmId) {\n        require(farms[_farmId].isActive, \"Farm is inactive\");\n        farms[_farmId].valuation = _newValuation;\n    }\n    \n    function createFarmWithToken(\n        string memory _farmName,\n        string memory _tokenName,\n        string memory _tokenSymbol,\n        uint256 _sizeInAcres,\n        uint256 _totalTokenSupply,\n        uint256 _valuation,\n        uint256 _expectedOutcomePercentage,\n        uint256 _pricePerToken\n    ) public returns (uint256) {\n        // Create new farm token\n        FarmToken newToken = new FarmToken(\n            _tokenName,\n            _tokenSymbol,\n            _totalTokenSupply,\n            farms.length, // This will be the new farm's ID\n            address(this),\n            _pricePerToken\n        );\n        \n        // Create farm using existing createFarm function\n        uint256 farmId = createFarm(\n            address(newToken),\n            _farmName,\n            _sizeInAcres,\n            _totalTokenSupply,\n            _valuation,\n            _expectedOutcomePercentage\n        );\n        \n        return farmId;\n    }\n    \n    function getFarmTokenAddress(uint256 _farmId) public view returns (address) {\n        require(_farmId < farms.length, \"Farm does not exist\");\n        return farms[_farmId].token;\n    }\n}\n\n",
  "sourcePath": "/Users/valenscarpentier/repos/demeter/contracts/FarmFactory.sol",
  "compiler": {
    "name": "solc",
    "version": "0.8.20+commit.a1b79de6.Emscripten.clang"
  },
  "schemaVersion": "3.4.16",
  "updatedAt": "2024-11-18T17:58:57.101Z",
  "networkType": "ethereum",
  "devdoc": {
    "kind": "dev",
    "methods": {},
    "version": 1
  },
  "userdoc": {
    "kind": "user",
    "methods": {},
    "version": 1
  }
}